:020000040800F2
:10000000903100203D03000845030008B50B0008AF
:10001000490300084B0300084D03000800000000DE
:10002000939D939B04999697F1000000510200085C
:100030005103000800000000D9020008290300084D
:100040005703000857030008570300085703000828
:100050005703000857030008570300085703000818
:100060005703000857030008570300085703000808
:1000700057030008570300085703000857030008F8
:1000800057030008570300085703000857030008E8
:10009000D12B000857030008570300085703000836
:1000A00057030008570300085703000857030008C8
:1000B00057030008570300085703000857030008B8
:1000C00057030008570300085703000857030008A8
:1000D00057030008650D0008570300085703000880
:1000E0005703000857030008C92B000800F002F866
:1000F00000F068F80AA090E8000C82448344AAF15A
:100100000107DA4501D100F05DF8AFF2090EBAE857
:100110000F0013F0010F18BFFB1A43F0010318473B
:100120009C7D0000CC7D00000A444FF0000C10F8CC
:10013000013B13F0070408BF10F8014B1D1108BF65
:1001400010F8015B641E05D010F8016B641E01F805
:10015000016BF9D113F0080F1EBF10F8014BAD1C55
:100160000C1B09D16D1E58BF01F801CBFAD505E073
:1001700014F8016B01F8016B6D1EF9D59142D6D3CD
:1001800070470000103A24BF78C878C1FAD85207E7
:1001900024BF30C830C144BF04680C607047000001
:1001A0000023002400250026103A28BF78C1FBD880
:1001B000520728BF30C148BF0B6070471FB51FBD35
:1001C00010B510BD00F029FB1146FFF7F7FF03F053
:1001D00063FF00F047FB03B4FFF7F2FF03BC00F03E
:1001E0004BFB00008546084780F309887047EFF312
:1001F00009807047684680F3098804480078C00782
:1002000014BF0220032080F314887047BC6F0008DD
:10021000DFF818C0EFF305831B0618BF6047EFF344
:100220001483DB0708BF604700DF70476D4D00088F
:10023000DFF818C0EFF305831B0618BF6047EFF324
:100240001483DB0708BF604700DF7047794F000861
:10025000EFF30980816911F8021C39BB90E80F1097
:10026000E047EFF3098C194B93E80600914218D050
:1002700059B10CB44FF0010381F821302CE9F00F93
:10028000C1F824C005F00CF90CBC1A60D2F824C0E7
:10029000BCE8F00F92F821308CF309881BB192F87A
:1002A0002000CCF800006FF0020E704710B5084A2D
:1002B0001268914209D8074C54F8214090E80F1079
:1002C000A047EFF3098C8CE80F0010BD90010020CF
:1002D000880800088808000804F0CEFF114B93E856
:1002E000060091421BD00CB44FF0000381F821307E
:1002F000EFF3098C2CE9F00FC1F824C005F0D0F819
:100300000CBC1A60D2F824C0BCE8F00F8CF309884A
:1003100092F821301BB192F82030CCF800306FF009
:10032000020E70479001002005F07CF9D6E700002E
:1003300003F0E8FF05F076F9D0E7000009488047B0
:1003400009480047FEE7FEE7FEE7FEE7FEE7FEE7B7
:10035000FEE7FEE7FEE7FEE704480549054A064BCF
:1003600070470000150D0008ED00000890270020E0
:1003700090310020902C0020902C002000487047E5
:100380002C27002040EA010310B59B070FD1042A57
:100390000DD310C808C9121F9C42F8D020BA19BA50
:1003A000884201D9012010BD4FF0FF3010BD1AB1B5
:1003B000D30703D0521C07E0002010BD10F8013B0A
:1003C00011F8014B1B1B07D110F8013B11F8014B31
:1003D0001B1B01D1921EF1D1184610BD10B5431C54
:1003E00002E010F8011B71B18107FAD14FF0013220
:1003F00002C88C1A8C4314EAC211F9D0C01A0A063A
:1004000003D0C01E10BDC01A10BD0A0401D0801E4A
:1004100010BD0902FCD0401E10BD40EA010370B5BA
:100420009B072ED14FF00136042A2AD308C810C9E1
:100430009D1B9D43121F15EAC61517D0D8B2E1B215
:10044000401A50EA056110D198B2A1B2401A50EAA0
:1004500005410AD123F07F4024F07F41401A50EA41
:10046000052102D1180EA0EB146070BDA342DBD0B1
:1004700018BA21BA884201D9012070BD4FF0FF306F
:1004800070BD0AB9002070BD10F8013B11F8014B96
:1004900063B1A3420AD1521E08D010F8013B11F8F3
:1004A000014B1BB1A34201D1521EEDD1181B70BDEF
:1004B000421E12F8013F002BFBD111F8013B002B2B
:1004C00002F8013BF9D17047032A40F2568010F040
:1004D000030C00F0158011F8013BBCF1020F6244DF
:1004E00098BF11F801CB00F8013B38BF11F8013B70
:1004F000A2F1040298BF00F801CB38BF00F8013B1D
:1005000011F0030300F0B080121FC0F03680A1EBA1
:100510000301022BD1F800C000F0118000F21E8010
:100520004FEA1C2351F804CF121F43EA0C6340F832
:10053000043BBFF4F5AF01F1010100F01EB84FEA32
:100540001C4351F804CF121F43EA0C4340F8043B0C
:10055000BFF4F5AF01F1020100F00FB84FEA1C63E0
:1005600051F804CF121F43EA0C2340F8043BBFF4B8
:10057000F5AF01F10301AFF30080D20724BF11F8FA
:10058000013B11F801CB48BF11F8012B24BF00F843
:10059000013B00F801CB48BF00F8012B7047431A1C
:1005A00028BF9A427FF690AF032A1044114440F2CC
:1005B000498010F0030F1EBF11F8013D521E00F8D4
:1005C000013D10F0030F7FF4F6AF11F0030300F0CC
:1005D000FA80121FC0F03680A1EB0301022BD1F884
:1005E00000C0C0F0118000F21E804FEA0C4351F8A9
:1005F00004CD121F43EA1C4340F8043DBFF4F5AF9D
:1006000001F1020100F01EB84FEA0C6351F804CD6D
:10061000121F43EA1C2340F8043DBFF4F5AF01F17B
:10062000010100F00FB84FEA0C2351F804CD121F5E
:1006300043EA1C6340F8043DBFF4F5AF01F1030148
:10064000AFF30080D20724BF11F8013D11F801CDAE
:1006500048BF11F8012C24BF00F8013D00F801CD7E
:1006600048BF00F8012C704710B5203AC0F00B804D
:10067000B1E81850203AA0E81850B1E81850A0E8A6
:100680001850BFF4F5AF5FEA027C24BFB1E8185000
:10069000A0E8185044BF18C918C0BDE810405FEA70
:1006A000827C24BF51F8043B40F8043B08BF7047EC
:1006B000D20728BF31F8023B48BF11F8012B28BFF1
:1006C00020F8023B48BF00F8012B704702F0FF03FF
:1006D00043EA032242EA024200F002B84FF000026D
:1006E0000429C0F0128010F0030C00F01B80CCF144
:1006F000040CBCF1020F18BF00F8012BA8BF20F8B2
:10070000022BA1EB0C0100F00DB85FEAC17C24BF05
:1007100000F8012B00F8012B48BF00F8012B7047AF
:100720004FF0000200B5134694469646203922BF8A
:10073000A0E80C50A0E80C50B1F12001BFF4F7AFD5
:10074000090728BFA0E80C5048BF0CC05DF804EBB7
:10075000890028BF40F8042B08BF704748BF20F825
:10076000022B11F0804F18BF00F8012B7047427820
:1007700001788378C07841EA022141EA034141EAE5
:10078000006070474FEA102208704A704FEA10422A
:100790008A704FEA1062CA7070477047704770479E
:1007A000431A28BF9A427FF65FAF104410F0030F40
:1007B00011441EBF11F8013D521E00F8013D10F01A
:1007C000030F7FF4F6AF103AC0F00A8010B531E99C
:1007D0001850103A20E91850BFF4F9AFBDE81040A6
:1007E000530724BF31E9081020E9081044BF51F82D
:1007F000043D40F8043D12F0030F08BF7047D207D4
:1008000028BF31F8023D48BF11F8012C28BF20F85D
:10081000023D48BF00F8012C70477546FFF7AEFD5A
:10082000AE4605006946534620F00700854618B0DD
:1008300020B5FFF791FDBDE820404FF000064FF0D6
:1008400000074FF000084FF0000B21F00701AC4605
:10085000ACE8C009ACE8C009ACE8C009ACE8C00924
:100860008D46704710B50446AFF300802046BDE8C2
:100870001040FFF7B0BC000001491820ABBEFEE7F6
:1008800026000200704700000000000040F2550CF6
:10089000C2F2000C604740F26B0CC2F2000C6047E1
:1008A00040F2290CC2F2000C604740F22D0CC2F25B
:1008B000000C604701078A0E07490A44D2F8001C61
:1008C000000602D548F6CF7001E04CF68F7001406B
:1008D000C2F8001C70470000005000400207930E51
:1008E0000A4A1A44D2F8003C000605D501F030004F
:1008F000584048F6BF7104E001F4405058404BF6B0
:100900008F710840C2F8000C704700000050004092
:1009100001490860704700001404014070B50546A5
:100920004FF43026304600F0B5F8042811D1094CB8
:10093000206940F0020020616561206940F04000BC
:100940002061304600F0A6F8216941F6FD721140A1
:10095000216170BD0020024008490420CA68D20706
:1009600001D001207047CA68520701D502207047A4
:10097000C968C906FBD5032070470000002002406B
:1009800003490020C969890700D50120704700008C
:10099000002002400248016941F080010161704776
:1009A000002002402DE9F841064600204FF4005790
:1009B00000900D46384600F06DF8042816D10C4C16
:1009C000206940F0010020613580B846384600F0CB
:1009D00061F8BF1E042806D1B61C280C0096308092
:1009E000404600F057F8216939402161BDE8F8819F
:1009F0000020024070B506464FF43025284600F02E
:100A000049F8042818D11A4C1848A0601948A06069
:100A1000206940F020002061206940F04000206102
:100A2000284600F037F841F6DF71042805D0052884
:100A300002D022690A40226170BD2069084020610D
:100A4000206940F0100020610B480EB1002100E049
:100A5000A5210180284600F01DF80528ECD0216969
:100A600041F6EF721140216170BD0000230167451E
:100A700000200240AB89EFCD00F8FF1F0348024978
:100A800041600349416070472301674500200240EF
:100A9000AB89EFCD00B50346FFF75EFF02E0FFF73D
:100AA0005BFF5B1E012803D0002B00D1052000BD99
:100AB000002BF4D1FAE7F0B5CC78002204F00F0354
:100AC000E40601D58C7823430C784FF00F0C14F01A
:100AD000FF0F4FF0010E1BD005680E880EFA02F4CE
:100AE0002640A64210D196000CFA06F725EA070721
:100AF00003FA06F5CE783D43282E02D0482E02D0C8
:100B000002E0446100E00461521C082AE5D305605C
:100B10000A88FF2A1CD94468002202F108060EFA4E
:100B200006F50E882E40AE420ED196000CFA06F75E
:100B3000BC4303FA06F7CE783C43282E00D145612A
:100B4000CE78482E00D10561521C082AE5D34460B6
:100B5000F0BD0000F0B5144C002801DAE36900E0B4
:100B60006368450D2E0185B2C0F30157B540C0F34F
:100B70000342032F05D0C6020AD503269640B3438D
:100B800007E023F07062636823F07063636002E043
:100B9000AB4343F0706201B12A43002801DAE261FD
:100BA000F0BD6260F0BD000000000140416170478F
:100BB000016170476C2203A1002002F053F800F09D
:100BC00023F800002E2E5C2E2E5C2E2E5C736F758B
:100BD0007263655C6461706C696E6B5C626F6F748C
:100BE0006C6F616465725C6D61696E2E63000000FC
:100BF00000F01F02012191404009800000F1E02037
:100C0000C0F8001170470000BFF34F8F044801681F
:100C1000044A01F4E06111430160BFF34F8FFEE726
:100C20000CED00E00400FA05BFF34F8F04480168A3
:100C3000044A01F4E06111430160BFF34F8FFEE706
:100C40000CED00E00400FA05044A0029916901D086
:100C5000014300E0814391617047000000100240B1
:100C60000149C1F8D8007047000042420CB500228B
:100C7000264800920192016841F4803101604FF4EE
:100C8000A063016801F4003101910099491C0091B1
:100C9000019911B900999942F3D10168890333D5BB
:100CA000012101911A490A6842F010020A600A689B
:100CB00022F003020A600A6842F002020A604168F8
:100CC000416041684160416841F480614160416830
:100CD00021F47C114160416841F4E81141600168F0
:100CE00041F08071016001688901FCD5416821F003
:100CF00003014160416841F0020141604168C1F374
:100D000081010229FAD10CBD01920CBD00100240F4
:100D1000002002400F4810B5016841F00101016058
:100D200041680D4A1140416001680C4A1140016060
:100D3000016821F480210160416821F4FE014160D5
:100D40004FF41F018160FFF791FF05494FF00060EC
:100D5000086010BD001002400000FFF8FFFFF6FE23
:100D600008ED00E02DE9F041354F6021384600F0F4
:100D70008DF820B140F26771384600F081F840F2FA
:100D800025542146384600F081F84FF400760025BE
:100D9000D0B12146384600F073F82A4806F01EF814
:100DA0000446384600F0A9F8C2B26CB12548D0F824
:100DB00000124318491CC0F800121A70D0F8001233
:100DC000B14201D3C0F8005240F2277421463846A0
:100DD00000F05CF8002830D0A0462146384600F0EC
:100DE0004FF8194CD4F80002D4F80412884201D00C
:100DF000012000E000204FF4B07214A101F032FF96
:100E0000D4F804022118401CC4F8040209783846BA
:100E100000F077F8D4F80402B04201D3C4F80452C9
:100E2000D4F80002D4F80412884206D1414638466C
:100E3000BDE8F041002200F048B8BDE8F0810000B4
:100E4000003801404C230020442100202E2E5C2E2F
:100E50002E5C2E2E5C736F757263655C6869635FD0
:100E600068616C5C73746D33325C73746D333266BD
:100E700031303378625C756172742E63000000005B
:100E80000A0A01219140C9430180704770B501F001
:100E90001F0501260024C1F3421306FA05F2012BB7
:100EA0000FD0022B0FD0838A4FEA11210088134202
:100EB00006FA01F600EA060001D000B1012420463E
:100EC00070BD8389F0E7038AEEE710B5C1F34213E2
:100ED00001F01F040121A140012B07D0022B07D0F4
:100EE0001430002A026805D00A4304E00C30F8E709
:100EF0001030F6E78A43026010BD8088C0F3080016
:100F00007047C1F3080181807047002070470020BE
:100F10007047000010B5054C6068002805D101201D
:100F2000606000F005F80020606010BD0002002045
:100F30002DE9F047244CA06800283ED0D4E90401F4
:100F4000421AE0684FF0000652EA000137D021460D
:100F50001E4FC969DFF87880DFF878901E4D7AB1AE
:100F6000A069814205D338888B182844834200D376
:100F7000421A99F8003038F81300904200DA02461D
:100F80001648E660007840F0800001F0E7FDE16976
:100F90000144E1616269024462613B882B448B42F7
:100FA00000D1E561216991420BD199F8002038F810
:100FB0001210814205D10120E060BDE8F087A660F3
:100FC000FBE7E660F9E7000000020020B2730008CA
:100FD000B6730008A7010020D4250020B0730008D4
:100FE00010B50B4C206A18B1A06A401CA06210BD5D
:100FF00001202062606200F00DF800206062206233
:10100000D4E90C018842F2D0401AFFF780FF10BDEE
:101010000002002010B5134C1348164B216B0A1A1E
:1010200012481B780088821A114830F81300824257
:101030000EDB1148007801F035FA216B084420637B
:10104000A06A00280CD0616A002909D1401E06E080
:101050000120E062606A002802D0A06A401CA06201
:1010600010BD00000002002014260020B473000808
:10107000B6730008A7010020B173000810B504463C
:10108000400702D52046FFF7ABFF200704D52046D6
:10109000BDE81040FFF73EBF10BD7047002070470D
:1010A0000020704710B50C4800F01EF8002812D040
:1010B0000948FFF75CFB0949020A08704A70020CF4
:1010C0008A70000EC870044802790A7142794A7128
:1010D00080798871012010BD38020020542500203D
:1010E00010B500F003F810BD0020704700207047D5
:1010F00000207047002070470020704710B511484D
:101100000024114944608460C4600461C0E9054161
:10111000C0E9071444620D498462C0E90B41416390
:101120000480FFF7E5FF07494FF416503831FFF709
:1011300029FB044808213830047144718171FFF79C
:10114000DBFF10BD00020020D42500201426002063
:1011500010B5FFF7D3FF10BD70B5174C0025012661
:10116000206A50B9D4E90C01884206D1134988425B
:1011700003D02163E56225626163A06A70B1206AD1
:1011800060B9E06A50B92662FFF744FF2562D4E9EE
:101190000C01884202D0401AFFF7B9FED4E90101E0
:1011A000084308D1D4E90401884204D06660A660EF
:1011B000FFF7BEFE656070BD00020020142600200F
:1011C000002070470020704700207047024910B58A
:1011D0000880FFF78FFF10BD0002002070B50A4C99
:1011E0002046E578FFF7C3FA65F31F600749FFF76C
:1011F000C9FA06482179017161794171A17981713A
:10120000FFF77AFF70BD000054250020380200204F
:1012100000B50346FFF74EFB43F2300118465DF878
:1012200004EBFFF75BBB0000F0B58278224D4179FB
:10123000047902F00F0344EA012116066F682C8836
:1012400002F00F0207EB021204D5491C21F0010144
:10125000146011E094603E2909D91F3121F01F016B
:101260004FF0FF3404EB411444F4004403E0491C04
:1012700021F001014C02D4602A880A442A80C078F7
:1012800010F0030006D0012807D0022808D0032858
:101290000AD107E04FF4007106E04FF4806103E0EB
:1012A000002101E04FF4C061044A194302EB8300BE
:1012B000C0F8001CF0BD000080010020005000407C
:1012C000002802D10149D020088070478001002009
:1012D0000949CA1350B101200860002008600B1DA5
:1012E00018604FF4E0500860044803E003200860F1
:1012F0000248001F02607047405C00401408014033
:1013000010B50B4C0B48A2880078824200D90246E7
:101310001AB907490020143908718020216801F0AA
:101320001DFC216801442160A188081AA08010BD1D
:10133000B8010020A473000810B5064C0020A28854
:10134000216801F0AFF8216801442160A188081AE2
:10135000A08010BDB801002070470021FFF7BEBA81
:1013600043F22001FFF7BABA2DE9F047684F04466F
:10137000A7F1080580074FF00009A5F1140620D554
:1013800001F0B6FB3878C009FFF7E6FFF888A880BF
:101390003878C0F3411111B1012966D157E079784D
:1013A000DFF870810C2960D2DFE801F0060C5F13D2
:1013B0005F18275F2B31384601F048F91FE0FFF72F
:1013C0009FFF5EE0002005E001F0A2FBD8F80000DE
:1013D00039E0012001F07AF9C0B3F5E710F01F0FF2
:1013E00043D1B878012140F08000307000F07F00D8
:1013F00001F070FB01F08CFB43E001F07DF828B3B5
:10140000DDE710F01F0F30D141481B3812E001F02A
:10141000ADF9D8B101F07CFB3F4813E000F01F00AC
:10142000012822D1707888B13879B17888421CD2ED
:101430003A4908442860C2E701F05EFA30B101F091
:1014400067FB37480068E0B180471AE00DE010F014
:101450001F000AD0012808D100F0E4F888B900F094
:10146000E3F870B900F08CF858B93878000603D466
:10147000F88808B1002000E0802001F035FBA5F8D5
:101480000490600721D5387800061CD4A888E0B104
:10149000FFF752FFA888C0B93878C0F3411161B195
:1014A00001290AD110F01F0007D0012805D100F052
:1014B00065F850B900F036F838B9802001F014FB17
:1014C000A5F8049001E001F029FB200712D5387837
:1014D000000606D5A888317908430BD0FFF710FF26
:1014E00008E03078010605D500F07F00307000215B
:1014F00001F0F0FA600602D50020FFF789FE200611
:1015000004D5BDE8F0478020FFF782BEBDE8F08734
:10151000C001002018740008107400087C0100202D
:101520001474000810B51249124A087912789042D2
:1015300003D0114A1278904217D1487820B102287E
:1015400005D0202811D10DE0FFF73CFE05E0C8785A
:10155000897841EA0020FFF737FE30B101F0D8FA70
:10156000012010BDFFF73AFEF7E7002010BD000094
:10157000C0010020AE730008AF7300080020704760
:1015800070B52349234A08791278904203D0224A41
:10159000127890423AD11E484978204CC27883781C
:1015A0001F4D43EA022004291FD007DC79B101292D
:1015B0000FD002290BD0032928D111E0202906D011
:1015C000212919D022291AD023291FD11AE02C60F1
:1015D00010E0FFF765FD05E02C60FFF791FE09E0E4
:1015E000FFF75CFD0028F7D110E0FFF78EFC0BE061
:1015F00001F08EFA012070BDFFF754FDF2E7FFF70E
:10160000E5FD01E0FFF7DCFD0028F1D1002070BD11
:10161000C0010020AE730008AF73000854250020FD
:10162000B80100200020704710B51548154A01790F
:101630001278914222D101464278C8788B788C7911
:1016400043EA0020CB79FE2A44EA032109D0FF2A8D
:1016500014D198B991B900F069FE78B101F058FA47
:101660000AE058B9012909D100F034FB30B107492B
:1016700005480860FFF744FE012010BD002010BDA2
:10168000C0010020A573000854250020B8010020E7
:101690002DE9F0473B4D2C6860050AD501F0C4F9EF
:1016A00004F092FD3848006800B180476FF4806014
:1016B0002860200508D501F03BFA3448006800B1E5
:1016C00080476FF400602860E00408D501F03CFA20
:1016D0002F48006800B180476FF480502860A00553
:1016E00006D52C48006800B180476FF40070286070
:1016F000294E600406D5316809B1022088476FF48D
:1017000080402860DFF89490254FA00406D531680A
:1017100009B1012088476FF400502860A84641466F
:10172000D8F80000020427D56FF400420A6000F0E8
:101730000F0509EB8506D6F8004C20040ED540F6BF
:101740008F7104EA0100C6F8000C57F8251029B182
:10175000200501D5022000E0042088472006DED5C0
:1017600048F60F700440C6F8004C57F825100029C1
:10177000D5D008208847D2E7BDE8F0471420FFF70E
:1017800037BA0000445C0040BC730008C073000816
:10179000C4730008C8730008CC73000800500040F0
:1017A000D073000810B50020FFF75AFA0648C16947
:1017B00041F40001C1611420FFF71AFA03494FF404
:1017C0000040086010BD00000010024010080140F9
:1017D00070B500F00DF900282AD016480224164EE4
:1017E0000470447003203463307014480546FEF7DB
:1017F000BEFF022808D9114920461F39FEF7C2FF53
:1018000029462046FEF7BEFF0D48224609490078CA
:1018100040F0800001F0A2F92846FEF7A8FF316BE6
:10182000401A2946FEF7AEFF044901200839087323
:1018300070BD000094250020C8010020262700204C
:10184000A6730008114910B50878022808D00328AB
:1018500010D0042812D0052801D10020087010BD36
:101860000B48C07B282801D0A828F8D1BDE810403B
:1018700000F074BABDE8104000F098BD054800784B
:1018800040F0800000F0ACFDF4E70000C80100204B
:10189000FF260020A67300081B4910B5087870B316
:1018A00001280ED005281DD0072823D0174800781E
:1018B00000F096FD164902200873BDE8104000F0C4
:1018C00075BD13481F38C07B2A2803D02F2805D0A8
:1018D000AA2818D1BDE8104000F01EBBBDE810409A
:1018E00000F0AABABDE8104040F2394209A1002038
:1018F00001F0B8B900200870086B1F2803D1BDE8BB
:10190000104000F0E1B810BDC8010020A773000826
:101910001E2700202E2E5C2E2E5C2E2E5C736F75E3
:101920007263655C7573625C6D73635C757362642E
:101930005F6D73632E630000104910B54868C8607E
:1019400008B1012010BD0E48FEF711FF68B10C4828
:101950000838007B000604D50A48007840F0800073
:1019600001E00948007800F03BFD054901201731EE
:10197000087300F01BFD002010BD0000C80100200E
:1019800007270020A6730008A7730008134810B5A6
:10199000007900F08F01080605D501F00F004FF423
:1019A0008032824001E001228A400D48007840F0F8
:1019B00080048C4210D10B48006810420CD00A48B9
:1019C000FEF7D5FE0949884206D12046BDE8104001
:1019D0000D22054901F0C2B810BD0000C001002071
:1019E000A6730008B00100201E2700205553425363
:1019F00070B50B48FEF7BBFE094C0225173440B109
:101A0000A4F11F00007B000608D40648007800F00F
:101A1000E7FC257300F0CAFC002070BD012070BDFA
:101A200007270020A773000870B51148FEF79FFE36
:101A3000104C216B884202D82063032000E0042070
:101A400020700D480D49226B007840F0800001F0B5
:101A500085F807481F300546FEF789FE216B401ABE
:101A60002946FEF78FFE024900201731087370BD2A
:101A700007270020C8010020A67300089425002035
:101A8000064810B5028807480549007800F00AFDAD
:101A900005490863BDE81040FFF7FEBEAC730008BF
:101AA00094250020A7730008C801002010B5044643
:101AB000400702D50020FFF7E3FF200703D5BDE86C
:101AC0001040FFF7BFBE10BD2DE9F05F7A4E326BBC
:101AD0001F2A01D2134600E01F230020774D7849CA
:101AE00002E00C5C2C54401C9842FAD3DFF8D881F9
:101AF0000127DFF8D0A198F800001F2A40F0800BE2
:101B000069D16E48FEF733FE7049884263D1281DC3
:101B1000FEF72DFE694C1F34211DFEF733FEA4F1A4
:101B20001700FEF724FE04F10801FEF72BFE687B88
:101B300018B9A87B08B1102801D9277389E0E87B80
:101B40004FF002092A283ED022DC1A2850D00FDCA0
:101B50000428F2D006DCE8B30328EED1BDE8F05F3C
:101B600000F0A2BB1228E8D1BDE8F05F00F0BAB8DF
:101B7000232845D007DC1B2836D01E28DDD1BDE840
:101B8000F05F00F0DDB825283ED02828D5D147E009
:101B90009E2841D00FDC5528CFD004DC2F2853D00D
:101BA0003528CAD103E05A2826D09128C5D1BDE8EE
:101BB000F05F00F045BCA1282AD0A3285CD0A8285B
:101BC0002ED0AA28B9D100F0ABFA002806D0287B85
:101BD000000601E004E053E049D43770BDE8F09F0F
:101BE000BDE8F05F00F034BCBDE8F05F00F00EBC73
:101BF000BDE8F05F00F064BABDE8F05F00F02CBA19
:101C0000BDE8F05F00F012BBBDE8F05F00F0E6BA9F
:101C1000BDE8F05FFFF7DCBDBDE8F05F00F09ABB08
:101C200000F07EFA0028D9D0287B000605D586F87A
:101C30000090BDE8F05F00F091B89AF8000000F065
:101C4000CFFB84F80C9004E0287C800705D40020AA
:101C50002073BDE8F05F00F0A9BB00F061FA002836
:101C6000BCD0287B000602D437703762B6E798F8FC
:101C7000000040F08000E2E7584600F0B1FB5CE76E
:101C80004446584600F0ACFB2078114C00F00F01A0
:101C90004FF48030884021685546084320609AF808
:101CA000000000F09DFB287887402068074306204D
:101CB0002760307092E70000C8010020FF26002056
:101CC00094250020A7730008A673000855534243CB
:101CD000B401002002490020087001207047000074
:101CE0005425002010B5FFF783FE002820D0114BAB
:101CF000002080211870597002219970D970202419
:101D00001C7158719871D8710B48016808200A78C5
:101D100012B11A54491C00E01C54401CC0B22428C3
:101D2000F5D3064924200863BDE81040FFF77CBEC8
:101D300010BD00009425002078010020C80100207B
:101D40000548C07CC107044800F11F0000D00121F4
:101D5000017300F02BBB0000FF2600202DE9F041AD
:101D6000304D314FDFF8C480A969686A0026884287
:101D70000AD33878002440F0800000F031FB88F866
:101D80000C6000F013FB08E02A492948097830F874
:101D90001140E86A844200D30446FFF7CDFD00B944
:101DA0000024A86A68B374B1A96AE86922460144AC
:101DB000387840F0800000F0D1FEA86A2044A86284
:101DC000E86A001BE862D5E90410AA6A414391421F
:101DD00003D1AE62696A0844686214480830074655
:101DE000FEF7C5FC001B3946FEF7CCFC002C06D0E4
:101DF000E86A002803D10320287088F80C60BDE849
:101E0000F081002CDFD0E96A28690144491EB1FB4A
:101E1000F0F26869824200D90246E969686A04F012
:101E200091F9C1E7C8010020A67300081E27002011
:101E3000A8730008A70100202DE9F041324EDFF819
:101E4000CC800025B169706A884208D33048356378
:101E5000007800F0C5FA88F80C5000F0A7FAFFF7F8
:101E60006BFD20B1306B10B3B06A10B10FE0356379
:101E70001DE0F16A30690144491EB1FBF0F270695E
:101E8000824200D90246F169706A04F05BF90020D1
:101E9000204A336BB16A08E0F7690C183C5D175CA7
:101EA000BC4201D0356202E0401C9842F4D3346B4E
:101EB000B06A0119B162F06A071BF762D6E9042023
:101EC00042438A4203D1B562716A084470620F4886
:101ED00008300546FEF74BFC001B2946FEF752FC76
:101EE000002C0ED017B1307805280AD1306A30B1F5
:101EF000002088F80C00BDE8F04100F057BA01203E
:101F0000F7E7BDE8F0810000C80100201E2700208F
:101F1000A7730008942500202DE9F041DFF8048123
:101F2000414F0026D8F81810D8F82400884208D36A
:101F30003E48C8F83060007800F052FA3E7300F076
:101F400035FAFFF7F9FC08B9C8F83060D8F8301056
:101F5000D8F828000844D8F81010401E884206D946
:101F6000BDE8F041FD2232A1002000F07BBE002040
:101F7000384907E0D8F82830D8F81C400A5C0344F8
:101F8000401CE254D8F830209042F3D3D8F828000F
:101F900011000844C8F82800D8F82C20A2EB010250
:101FA000C8F82C2022D0454692B988B12969084446
:101FB000401EB0FBF1F46869844200D90446224611
:101FC000E969686A04F0D8F8AE62686A20440CE0F7
:101FD000D5E904125143814208D1E969686A04F0E5
:101FE000CBF8AE626969686A084468620E480830D6
:101FF0000546FEF7BCFBD8F830402946001BFEF72B
:10200000C1FB002C0BD0D8F82C0018B198F80000B8
:10201000052804D13E73BDE8F04100F0C7B9BDE822
:10202000F0810000C80100201E270020A7730008CF
:102030002E2E5C2E2E5C2E2E5C736F757263655C8B
:102040007573625C6D73635C757362645F6D7363FB
:102050002E6300009425002070B5FFF7C9FC00280E
:1020600026D0FFF769FC002822D012480021062262
:102070000170114B427081701A7A0824D201C2702B
:10208000017141718171C1710C481C630546FEF7F5
:102090006EFB082808D9094920461F39FEF772FB54
:1020A00029462046FEF76EFBBDE87040FFF7BCBC3A
:1020B00070BD000094250020C801002026270020C4
:1020C00070B5FFF795FC002822D0FFF735FC0028FB
:1020D0001ED010480321002201700F4942700424D1
:1020E0000B7ADB018370C2700C480C630546FEF767
:1020F0003EFB042808D9094920461F39FEF742FB58
:1021000029462046FEF73EFBBDE87040FFF78CBC39
:1021100070BD000094250020C80100202627002063
:102120002DE9F0412948FEF722FB284D00BA113D68
:1021300020F0FF04287D264E04430020C6E9094014
:10214000E87B2F280AD004DC28280BD02A281CD1B1
:1021500004E0A82810D0AA2817D109E0FFF7ECFB6B
:1021600000282FD0E87DA97D41EA002044BA0CE088
:10217000FFF7E2FB002825D01448001DFEF7F7FA10
:1021800000BA20F0FF04287E0443306944430F481E
:10219000F4620938FEF7EBFA0C4F01260E3768B1EE
:1021A000A04211D0287B000604D50A48007840F0F0
:1021B000800001E00848007800F012F93E7300F05A
:1021C000F5F80020BDE8F0810120FBE71027002092
:1021D000C8010020A6730008A773000810B5FFF718
:1021E00007FC00281CD0FFF7A7FB002818D00D4AD9
:1021F0000D489169491E0B0E03700B0C43700B0ABE
:102200008370C17011690B0E03710B0C43710B0AC3
:102210008371C17108201063BDE81040FFF704BC52
:1022200010BD0000C80100209425002070B5FFF704
:10223000DFFB002830D0FFF77FFB00282CD01748A9
:102240000021174A0170417081700821C1709169A5
:102250000C240B0E03710B0C43710B0A8371C171BB
:102260000221017211690B0C43720B0A8372C17255
:102270000C4814630546FEF77AFA0C2808D9094978
:1022800020461F39FEF77EFA29462046FEF77AFAE5
:10229000BDE87040FFF7C8BB70BD0000942500206A
:1022A000C80100202627002010B5FFF7A1FB002859
:1022B00035D01B4870211B4B017000214170DC6838
:1022C0005A6832EA040406D0062484702824047371
:1022D0004173DA6008E0DAB1134A127BE2B10522F9
:1022E0008270202202734173C1700171417181714A
:1022F0000A22C271017241728172C1728173C1730B
:102300000174417412201863BDE81040FFF78CBBC4
:10231000022282703A22E5E781700173E3E710BD83
:1023200094250020C80100201E270020054910B573
:10233000002008600449FEF725FA044907200870C8
:10234000012010BDB40100201E270020C80100207C
:10235000FFF7ECBF70B5FFF74BFB00281DD00F480F
:1023600020220021027041700D4CC17703202263AE
:1023700020700C480949007840F0800000F0EEFB26
:1023800009480546FEF7F3F9216B401A2946FEF786
:10239000F9F9054901200839087370BD942500201A
:1023A000C8010020A67300082627002010B50849A0
:1023B0000848FEF7E7F908480D220549007840F083
:1023C000800000F0CBFB05490520087010BD00001F
:1023D0001E27002055534253A6730008C801002051
:1023E00010B5044600F080FB200605D504F00F016F
:1023F0004FF48030884001E00120A04002490A6883
:102400001043086010BD0000B00100200A4810B55C
:10241000817C00F11F0429B101202073BDE8104028
:10242000FFF7C4BFC07C054900F00100486003F01D
:10243000A1FE0020F1E70000FF260020C8010020D7
:10244000024900200873FFF7B1BF00001E270020DB
:1024500010B51048FEF78BF90E4C173478B1A4F183
:102460001F00007B000604D50B48007840F0800078
:1024700001E00A480078FFF7B3FF012004E0FFF70E
:102480005BFA002805D000202073BDE81040FFF75C
:102490008DBF10BD07270020A6730008A773000892
:1024A0007047000070B5114A054600F00F005268F1
:1024B0000F4B02EB00108268808903EB4203C0F3EC
:1024C00009040022661C07E033F8040B01F8010B35
:1024D000000A01F8010B521CB2EB560FF4D34FF473
:1024E00040512846FEF7FAF9204670BD80010020D1
:1024F00000600040FFF74ABA2DE9FC41474BA3F1C9
:102500001C051878A3F1080410F01F0002D0012860
:102510006AD16AE042484149DE7802783F488978CA
:102520001C38082EC07876D2DFE806F07504114515
:10253000757508303B482060122053E0002A6AD0AD
:1025400018B1394820600A204CE03848FAE70AB947
:10255000012860D018B13648009000200BE03548C3
:10256000FAE7009A13782BB1D378967846EA0323DA
:102570001A440092401C8142F3D10098017899B32B
:102580002060C178827842EA01202BE062B318B162
:102590002948009000200BE02848FAE7009A1378B9
:1025A0002BB1D378967846EA03231A440092401C54
:1025B0008142F3D1E1E722480090032901D00020B5
:1025C00008E001F0E9FB0BE000990A780AB1114438
:1025D0000091401C99788142F6D10098017819B198
:1025E00020600078019006E015E001A9684600F03F
:1025F0002BF800280DD0A1880198814208D91149F3
:1026000080B2A0800978491E084201D101202871BA
:102610000120BDE8FC810020FBE70000C001002094
:10262000A17300081C740008387400082E74000898
:10263000A5740008427400086B750008087500084E
:10264000CE750008A47300080020704770B51D48BF
:102650001C4C0078A4F1080410F01F000AD0194A9D
:10266000A4F11405184B69781279012806D00228C4
:1026700026D109E01348163820601FE001B3A8787E
:1026800082421DD2002015E002F08F00020605D51F
:1026900000F00F064FF48032B24001E00122824088
:1026A00009B900070CD1A868104209D0E8681040A9
:1026B00000D001201870000A58702360012070BDFE
:1026C000002070BDC00100205425002070B5264BAD
:1026D000024619461878498810F01F00A3F11C061D
:1026E00004D0012829D0022827D111E0012924D1C2
:1026F00032B1012000F030FAF08840F0020005E02D
:10270000002000F029FAF08820F00200F08029E093
:10271000187900F08F04200605D504F00F004FF45F
:102720008035854001E00125A540707828B120075B
:1027300003D0B068284200D009B1002070BD2AB192
:10274000204600F0D1F9F06828430AE030692842B9
:1027500008D12046FEF75CFD2046FFF7CBFEF0686F
:10276000A843F060012070BDC00100202DE9F05F9A
:102770005B480026017811F01F0F6FD1584F807809
:102780001C3FB1464FF0010A4FF4803B00287BD03C
:10279000544801783846C07809B901285ED008B19C
:1027A000514C6CE0514C6AE06078022804D0042857
:1027B00047D0052861D146E0494861798078814257
:1027C0003AD1787020794B49B8700020484A09887E
:1027D00002E002F80090401C8842FAD30125B84676
:1027E0000AFA05F0D8F80810084202D02846FEF789
:1027F000B4FDD8F808100BFA05F0084203D045F0F4
:102800008000FEF7AAFD6D1C102DE9D34FF00110DA
:10281000C8E902090120C8F81090FEF751FDE079DF
:102820004006B8F8060002D540F0010001E020F0B3
:102830000100A8F8060020E0E078A17841EA002035
:102840001CE0E67819E0C6B9A07800F08F052806EC
:1028500005D505F00F010BFA01F002E03AE00AFAA3
:1028600005F0B96801432046B960FEF7DDFC284653
:10287000FEF776FD284600F021F920780444207800
:10288000002891D121E0FFE74D4687F8019001240F
:102890005E46B9680AFA04F0084202D02046FEF704
:1028A0005CFDB96806FA04F0084203D044F08000E9
:1028B000FEF753FD641C102CEBD34FF00110C7E959
:1028C000020500203D61FEF7FBFC05487978807821
:1028D000884202D00020BDE8F09F0120FBE7000005
:1028E000C0010020A1730008A5740008427400080C
:1028F0007C010020A27300082DE9F84F454800270D
:102900003E460078BA4600F01F00B94601287ED145
:1029100040491C394878002876D0002000903E4875
:1029200002780846C0780AB9012870D08B4608B1F1
:102930003A4C65E03A4C63E06078022804D0042801
:102940000CD005285AD11BE061799BF80100814227
:1029500054D0E078A17841EA002050E02D48A778D3
:10296000E67801794FF00009B94247D18078B0424A
:1029700044D1012000902B4810F807A0C6553DE037
:1029800024490879B84239D1A07800F08F085FEA6D
:10299000086005D508F00F004FF48035854002E04F
:1029A000012505FA08F58878B04215D1DBF8081042
:1029B00020462943CBF80810DBF80C10A943CBF8CC
:1029C0000C10FEF731FC4046FEF7CAFC404600F012
:1029D00075F849EA050911E056450FD119EA050FC6
:1029E0000CD1DBF808104046A943CBF80810DBF8FF
:1029F0000C10A943CBF80C10FEF7AFFC2078044470
:102A00002078002898D10098BDE8F88FFFE70020D3
:102A1000FAE70000C0010020A1730008A5740008B7
:102A2000427400087C0100201C48002202601C48FF
:102A3000006818B14FF40050410001E00020014649
:102A4000084318490968002901D04FF4007140EA91
:102A5000010002D04FF4807101E04FF0000140EA24
:102A60000100114940F41C40086011480F494FF023
:102A70005003026048684FF09002036082604FF09C
:102A8000D0020A8048F2FF71C1600A494FF44850F1
:102A9000086009494FF0800008607047445C0040BE
:102AA000CC730008C8730008405C0040800100201F
:102AB000505C0040005C00404C5C0040FDF7FABEFA
:102AC00010B5FEF745FBBDE81040FFF741BCFEF72F
:102AD00043BB0000002903D1024940F08000086098
:102AE000704700004C5C004041F21001FDF7F6BE5B
:102AF000082202490020FFF7D5BC0000C0010020D9
:102B0000024841684FF4007001F0B2BAC4000020DE
:102B100000221146802000F021B80000024803493D
:102B200002780020FFF7BEBCA473000854250020E3
:102B30000448016841F008010160016841F00401A6
:102B400001607047405C00400248016821F00801C4
:102B500001607047405C004070470000F0B5174FBF
:102B6000154606467A6800F00F0002EB0012144B7F
:102B7000126803EB420400236A1C08E091F801C0CC
:102B800011F802EB5B1C4EEA0C2C44F804CBB3EBBF
:102B9000520FF3D3796801EB00114D60094901EB45
:102BA0008000D0F8000CC0F30110012803D03021C0
:102BB0003046FDF793FE2846F0BD0000800100205E
:102BC00000600040005000404FF48020FDF7A0BEA0
:102BD0004FF0E0214FF48010C1F88001FFF790BF63
:102BE00010B5002A06DA22F00042D21D22F00703B7
:102BF000102203E0D21C22F003030C2213B19C1814
:102C00008C4201D9012010BD024401448360C0E917
:102C10000021C91AD018884202D810600246F9E78C
:102C20000020106010BD000010B5044602F078FDD1
:102C3000002805D04FF6FF71DFF808C0206800DFDC
:102C400010BD00001152000810B5044602F068FDE6
:102C5000002803D0DFF808C0206800DF10BD0000A6
:102C6000615100082DE9F04116460F4600281CD19D
:102C7000EFF3108000F0010572B600231A461946E2
:102C8000184600F0BBF8040003D13146384600F086
:102C9000FFF805B962B6002C07D1EFF30380C00638
:102CA00003D1BDE8F04103F041BDBDE8F081000073
:102CB00010B524220D490E48FDF7D6FC03F024FE82
:102CC0000C4803F01BFE03F021FC0B490B4A0C4B94
:102CD00008604FF40071B0FBF1F011600949012266
:102CE0001A60086009490848086010BD7C73000834
:102CF0001421002005320008FC010020D80100202A
:102D0000DC010020E0010020141F0020E40100206D
:102D100008B50028009001D0401EFAE708BD000069
:102D2000044841788078814201D00120704700201A
:102D3000704700006C01002000F01CBB00F01ABBC3
:102D400000207047012070472DE9F0414B212148B8
:102D5000FDF7C4FC4B272048FDF709FD1F4E1E4C14
:102D60001C4DB04215D16079217941EA00234B2BEB
:102D700001D21A4601E04FF04B0201D91F4601E093
:102D80004FF04B0714491348FDF79EFB002085F8D0
:102D900047004B211048FDF7A1FC0F493046FDF7D5
:102DA000F1FC2771380A60714122E91DE01DFDF731
:102DB0008BFB95F8490015F8481F41EA002204F8FA
:102DC000482F100A6070A878A070BDE8F04100F0AC
:102DD00093B80000B4260020004F0020646C766B8E
:102DE00010B5054C4121E01DFDF778FC002004F8EA
:102DF000480F607010BD0000004F00202DE9F04723
:102E00001A4F81461D4616468846F81DFDF7E6FA1C
:102E1000441CB9F1000002D04146FDF75FFC0020E0
:102E200006B1308005B12870F87900281CD04445DF
:102E300002D8F91D224604E0A4EB0800C11942465D
:102E4000C91DB9F1000F06D097F8490097F848302E
:102E500043EA0020308016B14846FDF735FB15B136
:102E600097F84A0028700120BDE8F087004F002045
:102E700002488079002800D001207047004F0020D0
:102E800002488079002800D001207047B426002035
:102E90002DE9F04188460746FDF7A0FA124D441C83
:102EA00041263146E81DFDF719FC412C02D8394670
:102EB000224602E0413CE11932462C46E81DFDF76E
:102EC00003FB84F848804FEA182084F8490000F09A
:102ED000ABF808B1012003E000F0A8F800B102202F
:102EE00084F84A00BDE8F081004F00200149887154
:102EF00070470000004F0020704770477047000087
:102F00002DE9F0410F4606464FF0FF340025DFF86B
:102F10003C8012E0705D082101F0FEFE84EA00644E
:102F200008204146002C02DA81EA440400E06400F3
:102F3000401E10F0FF00F5D16D1CBD42EADB2021E0
:102F4000204601F0E9FEC043BDE8F081B71DC10491
:102F50002DE9F0410E4617462021C04301F0DCFE6A
:102F600004460025DFF83C8012E0705D082101F086
:102F7000D3FE84EA006408204146002C02DA81EA8C
:102F8000440400E06400401E10F0FF00F5D16D1C09
:102F9000BD42EADB2021204601F0BEFEC043BDE871
:102FA000F0810000B71DC10470B514460D460646F9
:102FB000B2F5806F07D24FF4EE720AA10020FFF73E
:102FC00051FE022070BD00F0C9FB08B10E2070BD9B
:102FD0002A462146304600F005FD0028F7D01C2087
:102FE00070BD00002E2E5C2E2E5C2E2E5C736F7535
:102FF0007263655C6461706C696E6B5C647261675E
:103000002D6E2D64726F705C6961705F666C6173A8
:10301000685F696E74662E6300000000C10600F0F0
:103020000F0000D40930704701207047002070471E
:1030300010B500231A4600F0D5F9002800D0012071
:1030400010BD10B503F076F9012800D0002010BDA6
:103050002DE9F041164E144C144D3078012806D05D
:103060004FF49B7213A10020FFF7FCFD09E0B0783C
:10307000022748B14FF49E720EA10020FFF7F2FD27
:1030800037700220BDE8F081204600F02FF810B123
:1030900037701E20F6E704F58064AC42F4D30120BB
:1030A000B0700020EEE700000090000800F001087A
:1030B0002C0100202E2E5C2E2E5C2E2E5C736F7544
:1030C0007263655C6461706C696E6B5C647261678D
:1030D0002D6E2D64726F705C6961705F666C6173D8
:1030E000685F696E74662E630000000070B5204E44
:1030F00004463078012805D0FE221EA10020FFF7EB
:10310000B1FD18E04FF48060B4FBF0F100FB114119
:10311000022511B14FF4837208E0F17869B1D6E964
:1031200002121144A14208D040F20D1211A1002058
:10313000FFF798FD3570022070BD1C49B4F1006F97
:1031400001D38C4211D30121F170C6E9024020461F
:1031500000F046FF222803D00028EDD0357070BD66
:10316000204600F0FBFA0028F9D035701D2070BD14
:103170002C0100202E2E5C2E2E5C2E2E5C736F7583
:103180007263655C6461706C696E6B5C64726167CC
:103190002D6E2D64726F705C6961705F666C617317
:1031A000685F696E74662E6300000000008000088E
:1031B0004FF480607047000010B5242804D20649FF
:1031C00051F82000002805D1832204A10020FFF738
:1031D00049FD0AA010BD0000206F00082E2E5C2EB5
:1031E0002E5C2E2E5C736F757263655C6461706C0F
:1031F000696E6B5C6572726F722E63000000000076
:10320000704700002DE9F0411E4615460C46074662
:1032100003F00AFC022C1ED0002C2FD1384602F0FD
:1032200033FC03282AD0304603F04AF9800725D41E
:10323000384602F029FC0746304603F043F90446BD
:10324000304603F043F901463B4622462846BDE896
:10325000F04102F08FBD0A480068A8420ED1304606
:1032600003F030F90446304603F030F9064638469C
:1032700002F00AFC034622463146E7E7BDE8F0814A
:10328000142100202DE9F0411B4E04461746B07F63
:103290008846550258B92946404602F0B1FB03283A
:1032A00002D0214602F012FDB07F00280FD07068D6
:1032B000A0420CD8B068A0420BD008D9F068401CDE
:1032C00000D1F460F068A04200D20446F460BDE88A
:1032D000F081B0692A461044B061E019B060F07F17
:1032E00020B1BDE8F041002002F090BD41462046EB
:1032F000BDE8F04102F092BC14210020F0B518A105
:1033000085B0096804910278002104AB5C5C9442AA
:1033100024D0491C0329F9D312A1002291E8780096
:103320006F46815C8DE87800A1F1610CBCF1190F4A
:1033300014D9202901D2052910D14FF0000C17F81B
:103340000CE08E450AD00CF1010CBCF1100FF6D345
:10335000521C0B2AE5D3012005B0F0BD0020FBE78D
:10336000E5002000222A2B2C2E2F3A3B3C3D3E3FED
:103370005B5C5D7C70B50D4D00202C7874B1002134
:103380002970A97809B100F0DDFA022C05D069781E
:10339000032902D0002800D1212070BD40F2331251
:1033A00003A10020FFF75EFC022070BD0001002099
:1033B0002E2E5C2E2E5C2E2E5C736F757263655CF8
:1033C0006461706C696E6B5C647261672D6E2D64F4
:1033D000726F705C666C6173685F6465636F64656F
:1033E000722E63003EB51D460446302901D30120EC
:1033F00000E00020402211A1FFF734FC0C2204F170
:1034000020016846FDF760F81949019888420BD100
:1034100018490098884201D102203EBD1549FC3967
:10342000884208D101203EBD204602F05DFF00B970
:103430000DB103203EBD00203EBD00002E2E5C2EAF
:103440002E5C2E2E5C736F757263655C6461706CAC
:10345000696E6B5C647261672D6E2D64726F705C57
:10346000666C6173685F6465636F6465722E630088
:10347000049996978F9E939B2DE9FF5F4FF000066E
:10348000DDF838905FEA030893460746344613D0C8
:103490005FEA090010D00020C8F800000546C9F80E
:1034A0000000FFF7C1FDDFF894A088B12448022F87
:1034B00004D0032F0AD027E0652238E0BBF1000FCB
:1034C00004D00199814201D018261DE0054612E082
:1034D000FFF7ACFDB8B1012F02D0032F0ED013E0DF
:1034E0004FF00061BBF1000F04D00198884201D079
:1034F000172609E00D46DAF8004005E01148856816
:103500001148046800E01926FFF71CFC08B9012FD8
:1035100004D02EB1304604B0BDE8F09F1926F9E77B
:1035200024B1C8F80050C9F80040F3E79D2207A174
:103530000020FFF797FB0220EDE70000087000086D
:1035400000900008D86E0008E86F00082E2E5C2E50
:103550002E5C2E2E5C736F757263655C6461706C9B
:10356000696E6B5C647261672D6E2D64726F705C46
:10357000666C6173685F6465636F6465722E630077
:1035800010B50C4C207830B1AC220BA10020FFF715
:1035900069FB022010BDFF2230211448FDF796F888
:1035A00001202070002060706060A060E060A0706A
:1035B000E07010BD000100202E2E5C2E2E5C2E2E01
:1035C0005C736F757263655C6461706C696E6B5C73
:1035D000647261672D6E2D64726F705C666C6173CE
:1035E000685F6465636F6465722E630098090020EC
:1035F0002DE9FE4F474F0546894638781446012885
:1036000007D0C12244A10020FFF72CFB0220BDE817
:10361000FE8FF8784FF0010A18B9BD60FD6087F899
:1036200003A0B8784FF00308002852D1F86885420B
:1036300001D1012100E000212044F86031B3786815
:10364000C0F13006A64200D9164640493246084429
:103650004946FCF739FF7868A41B3044B14435442F
:10366000786030282BD302D14FF0010001E04FF0F9
:1036700000004FF0E30228A1FFF7F4FAD7E90112A6
:1036800001233248FFF7AEFE787001E087F8018031
:1036900001A8009002AB01227878B968FFF7ECFE30
:1036A000E8B9B878FC2280F001001BA1FFF7DAFA34
:1036B000019800F0EDF890B987F802A001E0B87821
:1036C00080B1D7E90120214900F054F838B9B87821
:1036D00040B122464946284600F04CF810B187F820
:1036E000008094E77878012804D0022804D00328C9
:1036F0000DD103E0164803E0164801E01648C06803
:103700002919814203D30220387010207FE700205E
:103710007DE70000000100202E2E5C2E2E5C2E2E58
:103720005C736F757263655C6461706C696E6B5C11
:10373000647261672D6E2D64726F705C666C61736C
:10374000685F6465636F6465722E6300980900208A
:103750000080000800F00108D86E000810B5EFF3F3
:10376000108101F0010472B6FDF790F8002C00D131
:1037700062B610BD2DE9F05F364E04460025307864
:1037800017468846012805D0782233A10020FFF78C
:1037900069FA0BE070694FF0020A844209D2802274
:1037A0002DA10020FFF75EFA86F800A00220BDE8F8
:1037B000F09FB0784FF0010B48B986F802B0204670
:1037C00002F02AF8050002D086F800A03FE0B146DA
:1037D0004E46D6E901028118A14213D8B1698B681F
:1037E0002A499847050002D089F800A02FE0FF225F
:1037F0002648B168FCF76AFF86F801B0D6E90101F6
:10380000084470600FB3D6E903010844A04204D80D
:10381000204602F001F80500E6D17068B168B146B3
:10382000201A0E1AB74200D23E46184932460844C2
:103830004146FCF749FE36B1002089F801003444C6
:10384000B044BF1BC4E70120F7E7C9F8144028467D
:10385000ADE70000100100202E2E5C2E2E5C2E2ED7
:103860005C736F757263655C6461706C696E6B5CD0
:10387000647261672D6E2D64726F705C666C61732B
:10388000685F6D616E616765722E6300C809002014
:1038900070B51D4D0446287808B146222BE04CB384
:1038A000606838B3A06828B3E06818B3206908B32B
:1038B0006069F8B1A069E8B1FF224FF48061134854
:1038C000FCF704FF01266E700020A8706860A860F5
:1038D000E8602861C5E9050420688047002808D110
:1038E000A8690069804704000BD0A8694068804738
:1038F000204670BD4C2206A10020FFF7B3F902203C
:1039000070BD2E7070BD000010010020C80900209D
:103910002E2E5C2E2E5C2E2E5C736F757263655C92
:103920006461706C696E6B5C647261672D6E2D648E
:10393000726F705C666C6173685F6D616E61676504
:10394000722E630070B5184C0025207810B1012844
:1039500007D00FE0CA2215A10020FFF783F902204B
:1039600070BD607830B9A0691D498368D4E901024F
:1039700098470546A069406880470646FF224FF4F5
:1039800080611748FCF7A2FE012060700021A17041
:103990006160A160E1602161616121700EB130461A
:1039A00070BD284670BD0000100100202E2E5C2E38
:1039B0002E5C2E2E5C736F757263655C6461706C37
:1039C000696E6B5C647261672D6E2D64726F705CE2
:1039D000666C6173685F6D616E616765722E63000E
:1039E000C809002010B5EFF3108303F0010472B68C
:1039F000FCF751FF002C00D162B610BD0346012236
:103A00000149002018470000121200200248806877
:103A100040F30010401C7047001001402DE9F84FA2
:103A20007B4CA06940F01C00A06101210846FDF715
:103A30000BF901217748FDF78DF8A06940F00400EB
:103A4000A06175494FF400400860ADF80000DFF850
:103A5000C8A103248DF802401025AAF1100A8DF8A0
:103A6000035069465046FDF726F84FF08009ADF83F
:103A700000906A4F8DF802408DF803506946384631
:103A8000FDF719F880213846FDF792F82E01ADF8C0
:103A900000608DF802408DF8035069463846FDF706
:103AA0000AF831463846FDF783F8ADF800608DF826
:103AB00002408DF8035069465046FCF7FCFF314642
:103AC0005046FDF775F86E01ADF800608DF80240C4
:103AD0008DF8035069463846FCF7EDFF314638460D
:103AE000FDF766F84FF040084646ADF8008069469D
:103AF0003846FCF7E0FF40213846FDF759F8ADF8AD
:103B0000006069463846FCF7D6FF40213846FDF78D
:103B10004FF8ADF8006069463846FCF7CCFF40210D
:103B20003846FDF745F8ADF8006014208DF8030025
:103B300069465046FCF7BFFFE801ADF800008DF87C
:103B400002408DF8035069463846FCF7B4FF012067
:103B5000ADF80000DFF8C8A08DF802408DF80350E2
:103B600069465046FCF7A7FF01215046FDF720F8B3
:103B70000220ADF800008DF802408DF80350694630
:103B80005046FCF798FF02215046FDF70FF8202021
:103B9000ADF800008DF8024004268DF803606946F8
:103BA0003846FCF788FFADF800908DF802408DF89C
:103BB000036069465046FCF77EFFADF800508DF873
:103BC00002408DF8036069463846FCF774FFFFF742
:103BD0002BFA68B9ADF800808DF802408DF80350DB
:103BE00069463846FCF767FF40213846FCF7E0FF9E
:103BF000FCF7C6FE012806D0FCF740FF0020FCF7CA
:103C0000F9FEFCF7C7FE0748FFF782F8BDE8F88F1A
:103C10000010024000023000100801400010014076
:103C2000000C014040420F00044A00284FF04001C0
:103C3000104601D0FCF7BCBFFCF7B8BF0010014034
:103C4000044A00284FF04001104601D0FCF7B0BFF5
:103C5000FCF7ACBF00100140044A00284FF04001BF
:103C6000104601D0FCF7A4BFFCF7A0BF0010014034
:103C7000044A00284FF40071104601D0FCF796BFAB
:103C8000FCF796BF0010014070B50F4C002047F6BE
:103C9000FC716060A060E06020614FF00060FFF7A1
:103CA0002FF9606009490A48FFF72AF94FF4805557
:103CB000A06029460748FFF723F9E0602946064837
:103CC000FFF71EF9206170BDA4000020FC5F010019
:103CD000009000080080000800F0010800487047CC
:103CE000B80000200120C106054B0A6A9A4200D0A4
:103CF0000020496A034A914200D00020704700002A
:103D0000939D939B0499969700B5FFF7EBFF0028CE
:103D100002D04FF00060806A00BD0000014840689A
:103D200070470000A4000020014880687047000030
:103D3000A400002000487047E002002000487047BF
:103D40009E0200200649074B01200A6A9A4200D0D1
:103D50000020496A044A914200D0002070470000C8
:103D6000009000088F9E939B0499969700B5FFF7EB
:103D7000E9FF002801D00148806A00BD00900008DA
:103D8000004870479102002000487047BF020020A1
:103D9000004870476002002000487047E902002098
:103DA00000487047BD00002070B5FFF76DFF1F4849
:103DB00000F034FF01F0D0FC1C4831212030FCF72A
:103DC000AFFC1A481A492030FCF772FB174819A1BA
:103DD0002030FCF76DFB15495E31A1F13E00FCF788
:103DE00067FB1249A031A1F18000FCF761FB0F488D
:103DF00000242030FCF7F2FA0C4AC1B20220A932AA
:103E000000EB410010700320507002200023A2F14B
:103E1000890508E02E5D1654401CC0B21354401CA6
:103E2000641CC0B2E4B28C42F4D370BD40020020E6
:103E3000B8000020303030300000000010B5124CC7
:103E4000207830B1612211A10020FEF70BFF022083
:103E500010BD002211461046FCF722FD08B11A20C1
:103E600010BD00206070A070E070A060E060207164
:103E700020616061A0614FF480611248FCF72EFC64
:103E800001202070002010BD2C0100202E2E5C2E61
:103E90002E5C2E2E5C736F757263655C6461706C52
:103EA000696E6B5C647261672D6E2D64726F705CFD
:103EB0006961705F666C6173685F696E74662E63BA
:103EC00000000000C80D00202DE9F05FDFF8CCA055
:103ED0000446304F9AF800002F4D90468B4601283B
:103EE00008D04FF4BC722EA10020FEF7BBFE0220CA
:103EF000BDE8F09FBC4201D3AC4201D31F20F7E7DD
:103F0000FFF794F8A8B32E1B301F4146404501D956
:103F10000A4600E0321F5946DAF81800FFF718F891
:103F20008146CAF818002C48844208D22B49E01B6D
:103F3000084442465946FCF7C7FA0020D8E704EB8C
:103F40000800A84223D10BEB060010F8015C001F0B
:103F5000FCF70DFC65F31F605546814501D0232019
:103F6000C6E75A4641462046FFF73CFD10B11C20EB
:103F7000BEE70CE04FF4806218493846FFF714F8AA
:103F80000446FFF781FE012068702046B0E722203A
:103F9000AEE700000090000800F001082C010020AE
:103FA0002E2E5C2E2E5C2E2E5C736F757263655CFC
:103FB0006461706C696E6B5C647261672D6E2D64F8
:103FC000726F705C6961705F666C6173685F696E67
:103FD00074662E630000000000940008C80D0020E5
:103FE00070B514490446114D09781148012907D0CC
:103FF0004FF4DD7210A10020FEF734FE022070BDE8
:10400000AC4201D3844201D31F2070BDFFF70EF8EC
:1040100048B12846844206D12946BDE870404FF495
:104020008062FEF7C1BF222070BD00000090000832
:1040300000F001082C0100202E2E5C2E2E5C2E2E6E
:104040005C736F757263655C6461706C696E6B5CE8
:10405000647261672D6E2D64726F705C6961705F50
:10406000666C6173685F696E74662E6300000000A1
:104070000246084810B500EB810050F8040C0028F7
:1040800006D0114601F040F9BDE8104001F02CB90E
:1040900010BD00008408002010B5FFF7BFFCFEF73C
:1040A00053FEFFF7B3FC68B90D4CA06802F01CF991
:1040B00040B1FEF7E5FE28B90A49A068086003C8C8
:1040C000FCF790F80120FFF7D3FDFCF793F8064AC0
:1040D00006490748DFF81CC000DF002010BD0000C3
:1040E000D86E000808ED00E0D80300200A20030085
:1040F00011410008D5540008044901220A7008B192
:10410000022000E00120487070470000C400002039
:104110000126FEF7B5FE18B16420DFF810C100DFFC
:10412000DFF80CC100DF434F78600020FFF788FD07
:104130000020FFF779FD0020FFF78EFDFFF734FE2A
:1041400001F0D4FF012002F011FB002001F0CCFFB0
:104150004FF0000887F803800120C7F80880B87086
:104160000B244346344A48F60B013448DFF8D0C0EC
:1041700000DF4FF6FF7940F2032A002249465046FD
:10418000DFF8C0C000DFDFF8C0C000DF05468005F3
:1041900001D5FDF77DFAE8072CD05A2002F0FEFA8F
:1041A000F878012806D1B86810B1401EB86001D176
:1041B00087F80380B87858B301280ED0032814D0AC
:1041C000042817D1F878A8B90CB1641E12D10020C8
:1041D00001F08AFF87F802800CE00CB1641E09D15F
:1041E000012001F081FF032003E001F075FF08B119
:1041F0000220B870A807C0D538780028BDD07878DC
:10420000012801D00228B8D1012E03D0012602E0F6
:10421000FCF7FAFC00260EB1012801D0012000E0D5
:10422000002038703046FFF717FDA6E77D4E0008E6
:1042300021570008C400002050030020D15B000873
:10424000A55600083D4F0008854E0008FFF798B9B5
:1042500010B5044640F20111FCF740FA00F070FD81
:1042600000202070BDE81040FFF78AB9012805D072
:10427000022805D0032814D0D12202E0C52200E094
:10428000C92209A10020FEF7EDFCBFF34F8F1048B3
:104290000168104A01F4E06111430160BFF34F8FE0
:1042A000FEE7CD22EDE700002E2E5C2E2E5C2E2E9A
:1042B0005C736F757263655C6461706C696E6B5C76
:1042C0005254585F436F6E6669672E6300000000AA
:1042D0000CED00E00400FA05FEE700000748016865
:1042E0004FF0E02041610021816107210161044814
:1042F000016841F07F41016040177047B86F0008C6
:1043000020ED00E0704770472DE9FF5F05460198FA
:10431000109C05EB000ADFF8EC910020206099F872
:104320000300DFF8E4B11F4600281BD0002089F805
:1043300003005E469BF80020311D1846FCF7C4F8C8
:1043400030782168074408442060D9F80400B17827
:1043500072786FF30F0042EA01210843317801447B
:10436000C9F80410B2E028780A2815D00D2813D017
:104370003A287DD099F800104E46002979D0FEF7F2
:104380004DFE00F00F0270781BF800301A430BF856
:104390000020401C707094E05B4A002108461378AE
:1043A0005B1D04E0165C401C3144C9B2C0B28342BC
:1043B000F8D809B104268DE099F80210002944D1FB
:1043C000012189F802109BF802109BF801204E464B
:1043D00042EA012191FA91F88BF801804FEA182105
:1043E0008BF802109BF8030020B101282ED004287E
:1043F0006BD12DE04449252201F12500FCF764F83A
:104400007068B146010C090441EA08015E46814228
:1044100004D0012089F8030002265BE03278311DC8
:104420003846FCF751F8307821680744084420608A
:10443000D9F80400B17873786FF30F0043EA0121D3
:10444000084331780844C9F804003EE0012641E001
:1044500021680E98FF22411A3846FCF737F9206888
:10446000D9F80420121A0F980260AAEB050201E0A5
:1044700012E01DE00198821A029802609BF8052064
:104480009BF8043043EA022040BA0004C9F8040053
:10449000022004B0BDE8F09F25211B48FCF71EF95F
:1044A000002089F8000089F8010089F802000CE07A
:1044B0007178252923D2FEF7B1FD727801010BF83E
:1044C00002103078D8B1002030706D1C55457FF453
:1044D0004AAF002621680E98FF22411A3846FCF7A1
:1044E000F5F82168D9F80400411A0F980160019885
:1044F000AAEB0501411A029801603046C9E7012084
:10450000E2E7000048010020C81100202DE9F05F1B
:10451000DFF800810446DFF8F89098F800001546AF
:104520008B46012805D0A1223BA10020FEF79AFB73
:104530003FE04FF48060B4FBF0F300FB134301460F
:1045400002260BB1AA222EE00A46954204D3B5FBFF
:10455000F0F302FB135008B1B12224E0B4FBF1F0F8
:1045600002FB10402844884201D9B8221BE098F889
:10457000020078B998F8030050B1D8F808008442D6
:1045800004D3D8F80C100844A04203D8C6220AE08D
:10459000C02208E098F8040070B1D8E9040108448A
:1045A000A04209D0CE221CA10020FEF75BFB88F8B8
:1045B00000600220BDE8F09F25486719844202D2BE
:1045C000B7F1006F17D84FF0010A88F804A02A4607
:1045D00059462046C8E90445FFF776FC222804D056
:1045E0000028E7D088F80060E4E75A4629462046CC
:1045F000FFF7F8F918B188F800601C20DAE74F459A
:1046000003D3FFF741FB88F801A00020D2E70000A8
:1046100000F001082C0100202E2E5C2E2E5C2E2E88
:104620005C736F757263655C6461706C696E6B5C02
:10463000647261672D6E2D64726F705C6961705F6A
:10464000666C6173685F696E74662E6300000000BB
:10465000008000084FF48060704700002DE9F041B1
:104660008846044610444FF48061B1EB402F08D2D5
:1046700040F23A2213A10020FEF7F4FA0020BDE830
:10468000F081560231464046FCF728F860024509A1
:10469000102D15D24FF40077B7EB442F01D901202C
:1046A00000E000204FF4117206A1FEF7DBFA604231
:1046B00007EB4022104800EB45114046FBF704FF92
:1046C0003046DCE72E2E5C2E2E5C2E2E5C736F7532
:1046D0007263655C6461706C696E6B5C6472616767
:1046E0002D6E2D64726F705C7669727475616C5F8B
:1046F00066732E6300000000141D002010B50B46E9
:104700004FF4007408B1002010BD2246024918463B
:10471000FBF7DAFE204610BD541600202DE9F041CB
:104720000C4610B10020BDE8F081204F38780128F8
:1047300037D0022837D0002508461DA101F08AFD98
:104740000646A0191DA101F085FD0644A0191D49CA
:1047500001F080FD0644A0191BA101F07BFD064479
:10476000A0191AA101F076FD0644A019798801F07C
:104770007AFD0644A01914A101F06CFD064475B140
:10478000A01914A101F066FD0644A019294601F004
:1047900061FD851960190CA101F05CFD46193046D8
:1047A000C1E70FA5C8E711A5C6E70000500100202A
:1047B0004173736572740D0A0000000046696C65F0
:1047C0003A200000121400200D0A00004C696E65AA
:1047D0003A200000536F757263653A2000000000B4
:1047E000426F6F746C6F6164657200004170706C31
:1047F00069636174696F6E0070B50C4608B1002082
:1048000070BD084680A101F025FD054660198BA109
:1048100001F020FD0544FFF7BBFA0146601901F0E5
:1048200019FD0544601988A101F014FD05446019C3
:1048300086A101F00FFD0544FFF77CFA01466019DF
:1048400001F008FD054460197FA101F003FD054456
:10485000601981A101F0FEFC0544FEF771FA08B170
:1048600081A100E081A1601901F0F4FC0544601908
:1048700075A101F0EFFC054460197DA101F0EAFC8F
:104880000544FEF75FFA08B177A100E077A160194F
:1048900001F0E0FC054460196BA101F0DBFC05446C
:1048A000FEF7C2FB08B178A600E07AA660197CA1E9
:1048B00001F0D0FC05446019314601F0CBFC054401
:1048C000601961A101F0C6FC05446019314601F090
:1048D000C1FC0544601976A101F0BCFC0544FFF75A
:1048E0005FFA0146601901F0B5FC0544601956A154
:1048F00001F0B0FC0544FEF797FBA0B9FFF7F2F911
:1049000088B160196DA101F0A5FC0544FFF7FCF921
:1049100001466019042201F0D0FC054460194AA147
:1049200001F098FC0544FEF781FBA0B9FFF70AFAF5
:1049300088B1601967A101F08DFC0544FFF716FAF4
:1049400001466019042201F0B8FC054460193EA13B
:1049500001F080FC0544601963A101F07BFC054473
:10496000601964A101F076FC0544601936A101F0DC
:1049700071FC054460196AA101F06CFC05446019E2
:10498000012101F070FC054460192FA101F062FCC7
:104990000544601966A101F05DFC0544601969A138
:1049A00001F058FC0544601967A101F053FC05446F
:1049B000601925A101F04EFC0544FFF793F980B181
:1049C000601963A101F046FC0544FFF7A7F9014611
:1049D000601901F017FC054460191BA101F03AFCB5
:1049E000054460195FA101F035FC0544FFF79CF90F
:1049F0000146601901F006FC0544601912A101F09E
:104A000029FC284470BD000023204441504C696EAD
:104A10006B204669726D77617265202D2073656524
:104A20002068747470733A2F2F6D6265642E636F03
:104A30006D2F6461706C696E6B0D0A00556E697143
:104A400075652049443A20000D0A0000484943207A
:104A500049443A20000000004175746F205265738C
:104A600065743A20000000003100000030000000B2
:104A70004175746F6D6174696F6E20616C6C6F77D6
:104A800065643A2000000000426F6F746C6F6164CF
:104A900065720000496E74657266616365000000AE
:104AA0004461706C696E6B204D6F64653A20000044
:104AB0002056657273696F6E3A200000426F6F7402
:104AC0006C6F616465722056657273696F6E3A200F
:104AD00000000000496E746572666163652056656A
:104AE0007273696F6E3A2000476974205348413AE7
:104AF0002000000039663930323461613065393860
:104B000062663333623237666631613265666439B4
:104B10003264323534653336343664630000000065
:104B20004C6F63616C204D6F64733A20000000008D
:104B300055534220496E74657266616365733A200D
:104B4000000000004D5344002C204344430000006B
:104B5000426F6F746C6F61646572204352433A20F8
:104B600030780000496E7465726661636520435257
:104B7000433A2030780000002DE9F0410D4606460A
:104B800001F0ECFDFEF718FB0746FBF727FC044697
:104B900016B10020BDE8F081024639462846FBF7F1
:104BA00093FC0D202855601C0A212954A01CF1E714
:104BB00010B50C4608B1002010BD4FF4007120461E
:104BC00001F004FA2046BDE81040FBF707BC0000E6
:104BD0002DE9F041084D06460F462846FBF7FEFB3F
:104BE000044616B10020BDE8F08102462946384649
:104BF000FBF76AFC2046F6E7347E000810B50B464A
:104C00004FF4007408B1002010BD22460249184636
:104C1000FBF75AFC204610BD5414002006490B68CF
:104C2000091D0A68091D09680360C0E901214FF0E8
:104C3000A531C16070470000E8F7FF1F10B50846B6
:104C400054022146FBF74AFD204610BD70B5234DA6
:104C50004FF0FF346878A978884201D0012000E045
:104C6000002040F2E3121EA1FDF7FCFF6878022845
:104C700003D0B0B1012818D020E026484FF4FA74D0
:104C8000007FD8B1012809D0022817D0032815D0F9
:104C9000621C13A10020FDF7E5FF0FE044F620643D
:104CA0000CE0A878022808D008E0A878022801D0F3
:104CB00018B103E040F6C41400E00024601C05D1E4
:104CC00040F2052206A1FDF7CDFF0024A868A0420E
:104CD00001D9012070BD002070BD00006C010020D2
:104CE0002E2E5C2E2E5C2E2E5C736F757263655CAF
:104CF0006461706C696E6B5C647261672D6E2D64AB
:104D0000726F705C7666735F6D616E616765722E3F
:104D1000630000001421002070B503460020024605
:104D2000012609E0DC0704D08D1A6D1E06FA05F491
:104D300020435B08521CD2B28A42F3D370BD0000FC
:104D400010B525210748FBF7C9FC06482521253069
:104D5000FBF7C4FC04480021416001704170817080
:104D6000C17010BDC8110020480100200146EFF3BA
:104D7000108000F0010272B6086808B103680B6089
:104D8000002A00D162B6704770B50D46002812D0D7
:104D90004FF6FF71084C884204D222680146104643
:104DA00000F0D4FA20684570044800F0F8F8BDE837
:104DB000704000F087BB70BD900100205426002099
:104DC0007047000070B51A4EF06800282ED0B08AE7
:104DD000401EB082002523E0A06838B161684160C0
:104DE000606810B1A16881606560A56010482146C7
:104DF000183800F0CFFAA08AB0826078042804D175
:104E00000C49E08A09880844A0820120607084F877
:104E10002000E068F060E06808B10661E5602561A7
:104E2000B08A002802D1F468002CD5D170BD0000F2
:104E30006C2600209801002070B504000FD00D4DA5
:104E4000A17801262868827891420CD900F0BEFA38
:104E5000286846702046BDE8704000F033BB064825
:104E600000F09DF8F7E766702146BDE87040024803
:104E700000F090BA90010020542600200321FFF793
:104E800083BF000001480068408B704790010020FC
:104E900010B50446008B084320836278618B062A94
:104EA00016D0052A17D1084215D001EA0002628304
:104EB00088432083204600F0ADFA01206070022074
:104EC00084F820002146BDE81040034800F062BA93
:104ED00031EA0002ECD010BD54260020024670B525
:104EE000154800EB810050F8044C002C22D0208B98
:104EF000104320836178658B062918D0052919D1C4
:104F0000284217D005EA00016183A8432083204688
:104F100000F080FA208BA8432083012060700220DB
:104F200084F820002046BDE87040FFF785BF35EAD1
:104F30000001EAD070BD00008408002070B503466F
:104F40000C480D460468208B42B133EA000101D0C1
:104F5000062109E098432083022070BD10EA030176
:104F600001D06183F6E7052163832846FFF70CFF34
:104F7000012070BD90010020814202D342688A4224
:104F800001D801207047EFF3108212F0010F72B6C2
:104F900003680B60016000D162B6002070470146D3
:104FA0004068002342684A600A78022A05D0012A34
:104FB00003D0032A01D04360704742680AB1916070
:104FC000436083607047000070B5044600201546BA
:104FD000207001226270A1706060A060E0602061BA
:104FE000A082E0822083608384F8200084F821007E
:104FF000608C18B90448FFF7B9FEA0622946204624
:10500000BDE8704000F004B8C807002070470000F9
:1050100010B5428C920803D10E4A1288C2F38D0259
:10502000836A03EB82035A0700D51B1F4FF080727F
:1050300043E9021200221446403B43F82240521C2E
:105040000E2AFAD3C2691A624362C162806A0249B7
:10505000016010BDB46F0008A52E5AE20349044A4E
:105060000968C88212881044888270479001002025
:10507000980100200748016807488A8A0088CB8A7F
:10508000101A1A4480B28A82010402D40421FFF764
:105090007BBE704790010020980100202DE9F0416F
:1050A000044640680F46002620B16078022818D0D8
:1050B000A08980B3A089E189884241D2208904EB8C
:1050C0008000076172B6A089401CA08162B6208969
:1050D000401C80B22081E189884200D12681BDE850
:1050E000F08166702046FFF75AFF80F82060218922
:1050F000054604EB8101C069086172B6A089401CB5
:10510000A08162B62089401C80B22081E18988425A
:105110000BD1268109E0FFE72046FFF740FF054657
:10512000C0690421076085F82010012068702846B6
:1051300000F070F92946BDE8F041044800F02AB9B2
:10514000BDE8F0410320FFF791B80000542600208D
:1051500003210170002141704180416081607047EE
:105160002DE9F0470446408820B1274EA1683268F7
:10517000914202D0FF20BDE8F087401E0004000CE1
:1051800060803ED131686078DFF880808870616827
:105190004FF00009012739B32046FFF700FF05460D
:1051A000052085F82000284600F034F96780A560C6
:1051B000A87860703168D8F804008A7880788242D4
:1051C00001D328460AE0114800F0E4F829460F48C8
:1051D00000F0E0F8306847706F7010E0FFF72CFEC9
:1051E000316881F820900CE0D8F804108A78316892
:1051F000824206D9054800F0CDF83068477000209B
:10520000ECE70020B7E700009001002054260020C2
:1052100070B5184D0E4604464188286839B1A1681A
:10522000814208D16088401C6080002070BDA06071
:1052300080786070F6E776B162788078824203D237
:105240008870A06800F0CCF8606830B1204629680A
:1052500000F0A0F808E0012070BD286860602968AF
:10526000002048602868846009213046FFF78CFDE3
:10527000F1E700009001002070B518480121026894
:105280005170006800F0A2F8154D6C7812E005EB43
:10529000C40148680278C2B1012A1BD000F0E6F8C8
:1052A000E878641C844200D1002472B6A878401EBD
:1052B000A87062B6A8780028E9D16C700948FFF799
:1052C0006EFEBDE8704000F0FDB8098989B2FFF7B5
:1052D000DFFDE5E78968FFF7E1FEE1E790010020E7
:1052E00060080020542600200548017811B10121F2
:1052F0004170704703494FF08050086070470000CC
:105300008801002004ED00E0F0B40F4FBC1CFE78D3
:105310003D4672B6BA78B24207D2521C22702A7841
:10532000531CB34200D100232B7062B6FB7893422A
:1053300005D907EBC202C2E90101F0BC7047F0BC1D
:105340000220FEF793BF000060080020104A10B54D
:10535000D368ABB113469B8A03E08CB12246A48A82
:105360002344D4688B42F8D3C460D0600261C4681F
:1053700004B12061591A8182908A401A908210BD2E
:105380000024C460D060C91A02619182848210BD79
:105390006C26002030B502780024022A03D0012AAE
:1053A00001D0032A00D101248B7800E01046426826
:1053B00012B195789D42F9D24A6041601CB102B1A8
:1053C0009160886030BD0020FBE7000003494A6817
:1053D000426000228260486070470000542600202E
:1053E00010B5836804462BB9607801280ED1084BAC
:1053F00003E09B6818780028FBD0204600F01EF8D8
:105400002146BDE810401846FFF7C4BF10BD00009C
:105410005426002010B5016900290ED0C268CA6068
:10542000C36800223BB18B8A848A23448B82C36881
:105430001961C26000E08A82026110BD816839B1E1
:1054400042684A604168002901D0806888607047DE
:10545000054906E04A68824202D1406848607047C8
:1054600011460029F6D170475426002010B5416836
:1054700079B1FFF794FD0446FFF7CCFF012060707F
:10548000032084F820002146BDE810400348FFF7C0
:1054900081BF4188491C418010BD00005426002076
:1054A00006480068D0E90910814203D30068044926
:1054B000884202D00120FEF7D9BE7047900100203B
:1054C000A52E5AE20249486002214170704700004F
:1054D000900100202DE9F0471646414A8146884652
:1054E000002005463D49128802E041F82050401C4A
:1054F0009042FAD33B48302201883B48FDF770FBCD
:105500003A48008880B240F0004239480168394882
:10551000FDF766FB38480822018838480068FDF727
:105520005FFB374CFF27374AE77065840021204630
:10553000FFF74AFD3448042101704560334801708B
:10554000C56005618582606A2030FAF74DFE3048FB
:1055500031490460022060702E480570457009785A
:10556000C170FFF753FD2D48016841F47F010160D0
:105570000068390601EA00202849C0431439B0FA0E
:1055800080F00968C0F10800C1F30221814200DB0C
:10559000481C2249091F0B686FF08072824063F338
:1055A00017020A60FEF79AFE1D49002808600DDB0D
:1055B00000F1E02181F8007400F01F020121914008
:1055C0004011800000F1E020C0F800113246414651
:1055D0004846BDE8F047002300F064B88408002086
:1055E000B06F0008C86F0008F8060020B46F00080C
:1055F000CC6F0008C8070020D26F0008D000002040
:1056000084260020D9420008542600206C26002061
:105610009001002060080020D06F000820ED00E01D
:105620008C0100200C4810B50268012151700068FF
:10563000FFF7CCFEFFF7C4FB08480168491C016076
:10564000FFF7C0FB00F00EF80548FFF7A8FCBDE827
:105650001040FFF737BF00009001002098010020A4
:105660005426002070B50D4D2868002815D0A88854
:105670000B4E401EA8800AE0E088FEF744FEA0889A
:10568000A8802068286021463068FFF775FCA8884C
:10569000002802D12C68002CEED170BD9C010020A6
:1056A000D00000202DE9F0411E46174680460C46EA
:1056B00011F0FF0F00D14C1C1548FFF757FB051EDA
:1056C00023D0200AAF626884E1B242462846EE61E8
:1056D000FFF77AFC104901240E48098805E000EB29
:1056E000840252F8042C1AB1641C8C42F7D90024AD
:1056F00000EB840040F8045CEC702846FFF79CFB4C
:105700000648006880F820402046BDE8F08100008F
:10571000F806002084080020B06F000890010020E7
:1057200002480068002800D0C0787047900100202F
:1057300010B5074C6078002808D106494FF4007274
:1057400001F58060FAF790FF0120607010BD000045
:1057500054010020141900202DE9F0470024DFF83F
:10576000AC8025462646C8F8004088F80440212130
:105770002748FAF7B3FF264821212130FAF7AEFF78
:10578000234809214230FAF7CBFF214FA7F15E09E8
:10579000781959F8241000F035FD641C2844E4B24F
:1057A000C5B2042CF4D37E550025194F2C46213761
:1057B000A7F16F09781959F8241000F023FD641C33
:1057C0002844E4B2C5B2042CF4D31049104C143967
:1057D0007E5542342046096800F014FDC0B2042210
:1057E00026540C4801680948FAF76EFE074888F805
:1057F0000460401D302101703221417034218170DC
:105800003121C1700671BDE8F0870000B8000020AA
:105810009E020020A00000202DE9F0412C4E0746FA
:10582000B0694169384688470546B069816938469C
:105830008847044635B12CB14FF4806845450AD8F5
:10584000012009E040F21B1222A10020FDF70AFA14
:105850000220BDE8F08100204FF490721DA1FDF7F9
:1058600001FAB8FBF5F105FB118048B1002040F2C8
:10587000211218A1FDF7F6F9AC4203D3012002E092
:105880000120F4E700204FF4917212A1FDF7EAF92C
:10589000B4FBF5F005FB1040C0B1002040F223122C
:1058A0000CA1FDF7DFF9B7FBF4F004FB1070381A18
:1058B000C6E903047060444500D344462146FF22F4
:1058C0001148B460FAF702FF0020C2E70120E5E7C3
:1058D000100100202E2E5C2E2E5C2E2E5C736F7518
:1058E0007263655C6461706C696E6B5C6472616745
:1058F0002D6E2D64726F705C666C6173685F6D6194
:105900006E616765722E6300C809002010B5094CEE
:10591000207840B100F08CF86068C168064888477C
:105920000021217010BDC12204A10020FDF79AF9C9
:10593000022010BDD4000020940800202E2E5C2EE2
:105940002E5C2E2E5C736F757263655C6461706C87
:10595000696E6B5C647261672D6E2D64726F705C32
:1059600066696C655F73747265616D2E630000001B
:1059700070B5134C0546207808B1862202E0022D4E
:1059800006D38C220FA10020FDF76CF9022070BD18
:10599000DFF864C000DFA0604FF482711748FAF7A7
:1059A000BFFE0120207006480C3000EB051060603F
:1059B0004168124888470028E9D00321217070BD52
:1059C000D40000202E2E5C2E2E5C2E2E5C736F7564
:1059D0007263655C6461706C696E6B5C6472616754
:1059E0002D6E2D64726F705C66696C655F73747286
:1059F00065616D2E630000002157000894080020A7
:105A00002DE9F041094D0E460746002405EB041030
:105A1000314602683846904710B12046BDE8F08113
:105A2000641CE4B2022CF1D30320F7E7E00000206D
:105A3000DFF818C000DF06498968884201D10120DB
:105A400000E00020632203A1FDF70CB921570008F4
:105A5000D40000202E2E5C2E2E5C2E2E5C736F75D3
:105A60007263655C6461706C696E6B5C64726167C3
:105A70002D6E2D64726F705C66696C655F737472F5
:105A800065616D2E6300000010B500F1080103226E
:105A90000C4607A0FAF7C1FC002806D003222146D5
:105AA00004A0FAF7BAFC08B1032010BD012010BD14
:105AB00042494E004845580070B5154D06460C4603
:105AC0002878012806D0A52212A10020FDF7CAF8E7
:105AD000022070BDFFF7ACFF68682246314683683C
