:020000040800F2
:10900000683700203993000841930008FDA6000846
:1090100045930008479300084993000800000000AA
:109020008F9E939B04999697F10000004D92000843
:109030004D93000800000000D59200082593000819
:109040005393000853930008539300085393000868
:109050005393000853930008539300085393000858
:1090600009A2000839A200087DA200085393000855
:109070005393000853930008539300085393000838
:109080005393000853930008539300085393000828
:10909000D1E200085393000853930008539300084B
:1090A0005393000853930008539300085393000808
:1090B00031B90008539300085393000853930008F4
:1090C00053930008B9A7000891A70008539300081C
:1090D00053930008ADBC0008539300085393000855
:1090E000BDA1000853930008C9E2000800F002F88F
:1090F00000F068F80AA090E8000C82448344AAF1CA
:109100000107DA4501D100F05DF8AFF2090EBAE8C7
:109110000F0013F0010F18BFFB1A43F001031847AB
:109120000CC500003CC500000A444FF0000C10F8CC
:10913000013B13F0070408BF10F8014B1D1108BFD5
:1091400010F8015B641E05D010F8016B641E01F875
:10915000016BF9D113F0080F1EBF10F8014BAD1CC5
:109160000C1B09D16D1E58BF01F801CBFAD505E0E3
:1091700014F8016B01F8016B6D1EF9D59142D6D33D
:1091800070470000103A24BF78C878C1FAD8520757
:1091900024BF30C830C144BF04680C607047000071
:1091A0000023002400250026103A28BF78C1FBD8F0
:1091B000520728BF30C148BF0B6070471FB51FBDA5
:1091C00010B510BD00F027FB1146FFF7F7FF06F0C2
:1091D000A1FC00F045FB03B4FFF7F2FF03BC00F075
:1091E00049FB000080F309887047EFF3098070475E
:1091F000684680F3098804480078C00714BF02203D
:10920000032080F314887047D8440108DFF818C0A1
:10921000EFF305831B0618BF6047EFF31483DB07EA
:1092200008BF604700DF7047F90A0108DFF818C07F
:10923000EFF305831B0618BF6047EFF31483DB07CA
:1092400008BF604700DF7047050D0108EFF3098094
:10925000816911F8021C39BB90E80F10E047EFF369
:10926000098C194B93E80600914218D059B10CB4FF
:109270004FF0010381F821302CE9F00FC1F824C030
:1092800008F01EF90CBC1A60D2F824C0BCE8F00F3C
:1092900092F821308CF309881BB192F82000CCF8A9
:1092A00000006FF0020E704710B5084A1268914234
:1092B00009D8074C54F8214090E80F10A047EFF36D
:1092C000098C8CE80F0010BD38020020849800083B
:1092D0008498000807F048FF114B93E8060091427C
:1092E0001BD00CB44FF0000381F82130EFF3098C50
:1092F0002CE9F00FC1F824C008F0E2F80CBC1A60A9
:10930000D2F824C0BCE8F00F8CF3098892F8213021
:109310001BB192F82030CCF800306FF0020E70478D
:109320003802002008F0A4F9D6E7000006F0F4FDAA
:1093300008F09EF9D0E70000094880470948004737
:10934000FEE7FEE7FEE7FEE7FEE7FEE7FEE7FEE7F5
:10935000FEE7FEE704480549054A064B7047000052
:10936000E1B80008ED900008682D00206837002063
:10937000683200206832002000487047042D002029
:1093800040EA010310B59B070FD1042A0DD310C882
:1093900008C9121F9C42F8D020BA19BA884201D9D4
:1093A000012010BD4FF0FF3010BD1AB1D30703D01C
:1093B000521C07E0002010BD10F8013B11F8014BD2
:1093C0001B1B07D110F8013B11F8014B1B1B01D1EE
:1093D000921EF1D1184610BD10B5431C02E010F8E2
:1093E000011B71B18107FAD14FF0013202C88C1A0A
:1093F0008C4314EAC211F9D0C01A0A0603D0C01E69
:1094000010BDC01A10BD0A0401D0801E10BD090293
:10941000FCD0401E10BD40EA010370B59B072ED161
:109420004FF00136042A2AD308C810C99D1B9D435A
:10943000121F15EAC61517D0D8B2E1B2401A50EA89
:10944000056110D198B2A1B2401A50EA05410AD183
:1094500023F07F4024F07F41401A50EA052102D1D9
:10946000180EA0EB146070BDA342DBD018BA21BA6D
:10947000884201D9012070BD4FF0FF3070BD0AB99C
:10948000002070BD10F8013B11F8014B63B1A342FD
:109490000AD1521E08D010F8013B11F8014B1BB144
:1094A000A34201D1521EEDD1181B70BD421E12F80D
:1094B000013F002BFBD111F8013B002B02F8013BCF
:1094C000F9D17047032A40F2568010F0030C00F0E7
:1094D000158011F8013BBCF1020F624498BF11F8EE
:1094E00001CB00F8013B38BF11F8013BA2F10402A7
:1094F00098BF00F801CB38BF00F8013B11F003031F
:1095000000F0B080121FC0F03680A1EB0301022BE7
:10951000D1F800C000F0118000F21E804FEA1C2339
:1095200051F804CF121F43EA0C6340F8043BBFF428
:10953000F5AF01F1010100F01EB84FEA1C4351F8EC
:1095400004CF121F43EA0C4340F8043BBFF4F5AFCD
:1095500001F1020100F00FB84FEA1C6351F804CF8B
:10956000121F43EA0C2340F8043BBFF4F5AF01F1AE
:109570000301AFF30080D20724BF11F8013B11F8BB
:1095800001CB48BF11F8012B24BF00F8013B00F8C4
:1095900001CB48BF00F8012B7047431A28BF9A42FD
:1095A0007FF690AF032A1044114440F2498010F036
:1095B000030F1EBF11F8013D521E00F8013D10F0CF
:1095C000030F7FF4F6AF11F0030300F0FA80121FCF
:1095D000C0F03680A1EB0301022BD1F800C0C0F02F
:1095E000118000F21E804FEA0C4351F804CD121F87
:1095F00043EA1C4340F8043DBFF4F5AF01F102011A
:1096000000F01EB84FEA0C6351F804CD121F43EA74
:109610001C2340F8043DBFF4F5AF01F1010100F057
:109620000FB84FEA0C2351F804CD121F43EA1C6314
:1096300040F8043DBFF4F5AF01F10301AFF3008042
:10964000D20724BF11F8013D11F801CD48BF11F830
:10965000012C24BF00F8013D00F801CD48BF00F8FF
:10966000012C704710B5203AC0F00B80B1E81850BB
:10967000203AA0E81850B1E81850A0E81850BFF4FC
:10968000F5AF5FEA027C24BFB1E81850A0E818509B
:1096900044BF18C918C0BDE810405FEA827C24BFEF
:1096A00051F8043B40F8043B08BF7047D20728BF7D
:1096B00031F8023B48BF11F8012B28BF20F8023BCC
:1096C00048BF00F8012B704702F0FF0343EA032272
:1096D00042EA024200F002B84FF000020429C0F052
:1096E000128010F0030C00F01B80CCF1040CBCF1D4
:1096F000020F18BF00F8012BA8BF20F8022BA1EB26
:109700000C0100F00DB85FEAC17C24BF00F8012B0A
:1097100000F8012B48BF00F8012B70474FF0000202
:1097200000B5134694469646203922BFA0E80C5057
:10973000A0E80C50B1F12001BFF4F7AF090728BF32
:10974000A0E80C5048BF0CC05DF804EB890028BFAE
:1097500040F8042B08BF704748BF20F8022B11F0D7
:10976000804F18BF00F8012B70474278017883784A
:10977000C07841EA022141EA034141EA00607047B2
:109780004FEA102208704A704FEA10428A704FEA7E
:109790001062CA707047704770477047431A28BFFD
:1097A0009A427FF65FAF104410F0030F11441EBFC2
:1097B00011F8013D521E00F8013D10F0030F7FF437
:1097C000F6AF103AC0F00A8010B531E91850103ADF
:1097D00020E91850BFF4F9AFBDE81040530724BF8B
:1097E00031E9081020E9081044BF51F8043D40F861
:1097F000043D12F0030F08BF7047D20728BF31F8AD
:10980000023D48BF11F8012C28BF20F8023D48BF97
:1098100000F8012C70477546FFF7AEFDAE46050017
:109820006946534620F00700854618B020B5FFF77B
:1098300091FDBDE820404FF000064FF000074FF0CB
:1098400000084FF0000B21F00701AC46ACE8C0095E
:10985000ACE8C009ACE8C009ACE8C0098D46704767
:1098600010B50446AFF300802046BDE81040FFF776
:10987000B2BC000001491820ABBEFEE72600020082
:10988000704700000000000040F2290CC2F2000CFA
:10989000604740F2550CC2F2000C604740F26B0C7E
:1098A000C2F2000C604740F22D0CC2F2000C60477F
:1098B0007FB50121112001F045FB28258DF80F50BF
:1098C0004FF48054ADF80C4002268DF80E6003A9C9
:1098D0000F4800F045FE0C21022000F0FBFD0020A7
:1098E0008DF804000C2000948DF8050001248DF8FB
:1098F0000640684600F0DAFC8DF808508DF8094003
:109900008DF80A608DF80B4002A801F089FA7FBD3E
:10991000001001402DE9F8430278A2F180031F2BCB
:1099200003D800F0FBF8BDE8F88301F8012B0C46E2
:1099300010F8013B002501264027FF22DFF8C481F3
:109940007149172B72D2DFE803F00C374965A1AFDC
:10995000BAD9C77283D9D9D9D9D9868A8E98CACAB1
:10996000CA000078631C0021052822D008DC0128E9
:109970001FD002281DD003281BD0042819D108E0CD
:10998000062816D0F0280BD0FE280FD0FF2810D1C3
:1099900008E004225D491846FFF794FD042108E021
:1099A0001E7005E01F705D70022102E00420187037
:1099B00001212170881CB6E7017819B101290AD06C
:1099C000227009E040784FF08001C207504801D072
:1099D000416100E00161257001207BE0007808B161
:1099E00001285FD10E700421404606F0EBFB454D87
:1099F0001020103528600521404606F0E3FB2020AA
:109A000028600621404606F0DDFB281D0760267011
:109A100030465FE00D7001220421404606F080FBD5
:109A200001220521404606F07BFB3BE066E04178E1
:109A30000078394A40EA012136480068B0FBF2F06C
:109A40000322801CB0FBF2F04843401EFDD129E008
:109A5000657025702DE0214600F0A4FA3AE0214619
:109A600000F076FA36E010F8012B0AB94FF4807254
:109A70000146104601F0CAFD14E0007800F0030230
:109A8000521C0A75C0F3800048750BE002780A7218
:109A90008278437843EA02224A810279C37843EA12
:109AA000022088812570B3E70978012903D0257049
:109AB000657002200EE0214600F04AF80AE00978BD
:109AC000012904D025706570A570032002E02146AD
:109AD00000F0AAF9401C26E70978012902D022707B
:109AE000022020E70779401CFFF73FFE67F31F6065
:109AF00000906946002001F08DFAD3E704F8012CAC
:109B0000012010E700080140340300201044010840
:109B100000100140E801002040420F0070B50078BD
:109B20000C46802803D0FF200870012070BD05F08E
:109B3000ADFD0646FFF750FCC5B280202070657071
:109B40002A463146A01CFFF7BDFCA81C70BD0000D2
:109B50002DE9F04F054685B00020DFF8C492CDE92D
:109B600001018C1C89F80000697806468246DFF8FE
:109B7000B4B2AD1C04910CE115F8018B5FEA887159
:109B80007ED58EB3BBF80A7008F01100012807D00B
:109B90004E4669460E2001F03DFA02280DD011E034
:109BA0006946404601F036FA02280CD17F1E03D3E5
:109BB00099F800100029F3D027E17F1E02D33178F5
:109BC0000029E6D000260128F6D1009904F8011BEF
:109BD0000099090A04F8011B0099090C04F8021BFA
:109BE0000099090E04F8011C5FEAC8614CD5EF78B2
:109BF0002846FFF7BAFD67F31F600390BBF80CA07F
:109C00002D1D5FEAC87011D0BBF80A7000214046D4
:109C100001F000FA022802D00128CDD106E07F1E13
:109C2000CAD399F800100029F0D0EEE0BBF80A7012
:109C30006946404601F0EEF9022802D0012815D10C
:109C400006E07F1E12D399F800100029F0D00DE035
:109C5000DBF81010009A1140039A914206D0BAF135
:109C6000010A03D399F800100029DFD0DBF81010A7
:109C7000009A1140039A914201D040F0100000E098
:109C80003BE0012815D136E0BBF80A705FEAC871E5
:109C900012D086BB4E460021404601F0BBF9022897
:109CA00002D0012805D105E07F1E02D331780029BA
:109CB000F1D0AAE001261EE06946404601F0AAF96B
:109CC000022802D0012806D106E07F1E03D399F8AE
:109CD00000100029F0D098E0009904F8011B0099C9
:109CE000090A04F8011B0099090C04F8021B0099E9
:109CF000090E04F8011C002144E00EB3BBF80A6011
:109D00004F4669460E2001F085F9022802D001284D
:109D10007BD105E0761E78D339780029F1D074E044
:109D2000009804F8010B0098000A04F8010B009851
:109D3000000C04F8020B0098000E04F8010C002639
:109D4000EF782846FFF711FD67F31F602D1D009087
:109D50005FEA886103D5CBF81000012013E0BBF85F
:109D60000A706946404601F055F9022802D00128E0
:109D70004BD106E07F1E48D399F800100029F0D09F
:109D800043E001218A460199491C019199F800108C
:109D900029B90499491E0491491C7FF4EDAE0128AC
:109DA00033D10EB3BBF80A504E4669460E2001F07F
:109DB00031F9022802D0012827D105E06D1E24D3F5
:109DC00031780029F1D020E0009904F8011B0099B6
:109DD000090A04F8011B0099090C04F8021B0099F8
:109DE000090E04F8011C10E0BAF1000F0DD0BBF809
:109DF0000A504E4600210E2001F00CF9022804D131
:109E00006D1E02D331780029F4D0DDE90112117002
:109E100002994870029805B0201ABDE8F08F000042
:109E2000B8000020340300202DE9F84F0025DFF8AA
:109E300018B1024628468A46CE1C8BF8005091780D
:109E40005378D21C53EA012473D012F8019B904638
:109E50005FEA89715DD55FEAC9713AD03B484789AD
:109E60000021484601F0D6F8022802D0012860D12E
:109E70002FE07F1E5DD39BF800100029F0D058E042
:109E800024B95FEAC97001D04FF00E092F48D846B7
:109E900047896946484601F0BDF8022802D00128EA
:109EA00047D106E07F1E44D398F800100029F0D077
:109EB0003FE0009906F8011B0099090A06F8011B0A
:109EC0000099090C06F8021B0099090E06F8011CFE
:109ED0006D1C641ED4D22CE0404698F80370FFF746
:109EE00044FC67F31F600090184808F10408478994
:109EF0006946484601F08EF8022802D0012818D1A0
:109F000006E07F1E15D39BF800100029F0D010E06A
:109F10006D1C641EE0D20D485F46448900210E206E
:109F200001F078F8022804D1641E02D339780029A0
:109F3000F4D08AF800502A0A8AF801208AF8020030
:109F4000A6EB0A00BDE8F88FB8000020340300201B
:109F500070B50C46C578FFF708FC65F31F6048B183
:109F60000E4900230E4A0968B0EB910F05D301207A
:109F700050700FE0FF2020700EE000EB5101491EF1
:109F8000B1FBF0F05370022803D90321B0FBF1F0CC
:109F900000E0012050602370012070BDE801002026
:109FA000340300202DE9F04110F8015B0F4610F852
:109FB000014BC678FFF7D9FB384966F31F60E3070A
:109FC00001F1040206D0EE074FF0100301D00B6040
:109FD00000E01360A30706D5AE074FF0200301D5BC
:109FE0000B6000E01360230607D5EB09DE074FF096
:109FF000400301D0136000E00B60284E361F321F73
:10A000000021D0B3264B984200D918464FF0E023E8
:10A010009961DFF890C0DCF800C000FB0CF0DFF8BD
:10A0200088C0B0FBFCF0586105201861E00704D03F
:10A030003068C0F30010A84219D1A00705D51068F8
:10A04000C0F34010B0EB550F11D1600702D5B1EB52
:10A05000950F0CD1A00602D5B1EB551F07D12006F4
:10A060000AD51068C0F38010B0EBD51F04D0186972
:10A07000C0F300400028D9D0196130681168C0F3DE
:10A080000010C1F3401140EA41001168890940EA1B
:10A09000C11038700120BDE8F081000010080140B7
:10A0A000C0C62D00E801002040420F00164810B540
:10A0B00000681649B0FBF1F11548891E4160642122
:10A0C0004181012101751348816941F01C018161C1
:10A0D000114C01220421204606F022F8012205211C
:10A0E000204606F01DF80621204606F06BF80A49C6
:10A0F000402014310860094C0721204606F062F820
:10A100008021216110BD0000E8010020002D3101F7
:10A1100034030020001002400008014000100140FC
:10A1200000EBC0004FF0E021401C486100238B6130
:10A13000012008610869C20701D0C003FAD50B618C
:10A140008B6170470149022008607047100C014084
:10A1500002494FF400604861704700000010014060
:10A1600001078A0E07490A44D2F8001C000602D5EE
:10A1700048F6CF7001E04CF68F700140C2F8001C29
:10A1800070470000005000400207930E0A4A1A442C
:10A19000D2F8003C000605D501F03000584048F6E2
:10A1A000BF7104E001F4405058404BF68F710840F5
:10A1B000C2F8000C704700000050004070B54FF42A
:10A1C0008065284600F062F8012420B10B48047035
:10A1D000284600F055F84FF48055284600F056F810
:10A1E00000280AD006480068400701D505480470D9
:10A1F0002846BDE8704000F043B870BD0B01002058
:10A20000081401400C01002010B5042000F03EF8B5
:10A2100000280DD007480068400702D5FFF798FFD7
:10A2200001E000F081F8BDE81040042000F028B8FB
:10A2300010BD00000814014070B5082000F026F899
:10A24000002816D008210B4800F004FA4FF0804592
:10A25000284601F04FFC084C0021A060284601F080
:10A26000D5FCA06805F000FCBDE87040082000F0B7
:10A2700007B870BD000801401C02002070470000B4
:10A28000014908607047000014040140064A014675
:10A2900000201268044B0A4014331B680B4202D0A2
:10A2A000002A00D0012070470004014030B51A4A4E
:10A2B0008379016853B313688B431360111D0B68D6
:10A2C0000468A3430B60017911440B6804682343BD
:10A2D0000B60114B083319680468A14319601C1DF9
:10A2E00021680568A94321604179102905D01144EE
:10A2F0000A68006802430A6030BD196802681143A9
:10A300001960216800680143216030BD0079104464
:10A3100002688A43026030BD000401400149022006
:10A3200008607047140C014002494FF40060086156
:10A33000704700000010014070B505464FF430260C
:10A34000304600F0B5F8042811D1094C206940F0DE
:10A35000020020616561206940F0400020613046C4
:10A3600000F0A6F8216941F6FD721140216170BD2F
:10A370000020024008490420CA68D20701D0012009
:10A380007047CA68520701D502207047C968C906DC
:10A39000FBD5032070470000002002400349002045
:10A3A000C969890700D501207047000000200240DC
:10A3B0000248016941F080010161704700200240BC
:10A3C0002DE9F841064600204FF4005700900D4655
:10A3D000384600F06DF8042816D10C4C206940F086
:10A3E000010020613580B846384600F061F8BF1E94
:10A3F000042806D1B61C280C00963080404600F098
:10A4000057F8216939402161BDE8F88100200240F8
:10A4100070B506464FF43025284600F049F8042868
:10A4200018D11A4C1848A0601948A060206940F063
:10A4300020002061206940F040002061284600F0A3
:10A4400037F841F6DF71042805D0052802D02269CB
:10A450000A40226170BD206908402061206940F0F7
:10A46000100020610B480EB1002100E0A521018001
:10A47000284600F01DF80528ECD0216941F6EF725E
:10A480001140216170BD000023016745002002409A
:10A49000AB89EFCD00F8FF1F034802494160034933
:10A4A000416070472301674500200240AB89EFCD32
:10A4B00000B50346FFF75EFF02E0FFF75BFF5B1EA0
:10A4C000012803D0002B00D1052000BD002BF4D1C2
:10A4D000FAE7000010B58A0721F003040649120FBD
:10A4E00021440F238C6893409C438C608B68904080
:10A4F00003438B6010BD0000000001407FB50121C7
:10A50000212000F01FFD48208DF80F000424ADF835
:10A510000C4002258DF80E5003A9104800F020F8D9
:10A5200002210320FFF7D6FF00208DF80400102041
:10A5300000948DF8050001248DF806406846FFF769
:10A54000B5FE08208DF808008DF809408DF80A50F6
:10A550008DF80B4002A800F063FC7FBD00140140A1
:10A56000F0B5CC78002204F00F03E40601D58C7816
:10A5700023430C784FF00F0C14F0FF0F4FF0010E37
:10A580001BD005680E880EFA02F42640A64210D1B0
:10A5900096000CFA06F725EA070703FA06F5CE78C7
:10A5A0003D43282E02D0482E02D002E0446100E054
:10A5B0000461521C082AE5D305600A88FF2A1CD9C9
:10A5C0004468002202F108060EFA06F50E882E40B5
:10A5D000AE420ED196000CFA06F7BC4303FA06F71A
:10A5E000CE783C43282E00D14561CE78482E00D14C
:10A5F0000561521C082AE5D34460F0BDF0B5144C47
:10A60000002801DAE36900E06368450D2E0185B298
:10A61000C0F30157B540C0F30342032F05D0C60273
:10A620000AD503269640B34307E023F070626368BF
:10A6300023F07063636002E0AB4343F0706201B1EA
:10A640002A43002801DAE261F0BD6260F0BD00003B
:10A65000000001400246002092680A4200D001201A
:10A660007047416170470161704700007FB501216B
:10A67000112000F067FC04208DF80F000402ADF8F3
:10A680000C4002258DF80E5003A91048FFF768FF13
:10A690000A210220FFF71EFF00208DF80400082089
:10A6A00000948DF8050001248DF806406846FFF7F8
:10A6B000FDFD28208DF808008DF809408DF80A501E
:10A6C0008DF80B4002A800F0ABFB7FBD00100140ED
:10A6D00008B50121112000F035FC04208DF803009D
:10A6E0001020ADF8000002208DF8020069460248F3
:10A6F000FFF736FF08BD000000100140C32208A18B
:10A70000002003F049FEBFF34F8F10480168104A44
:10A7100001F4E06111430160BFF34F8FFEE70000D9
:10A720002E2E5C2E2E5C2E2E5C736F757263655C14
:10A730006461706C696E6B5C696E7465726661638E
:10A74000655C6D61696E2E63000000000CED00E039
:10A750000400FA051FB50020ADF804004BF6FF70A9
:10A76000ADF806009020ADF808004FF48060ADF819
:10A770000A000001ADF80C00034800906946034848
:10A7800000F08AF91FBD0000A086010000580040BB
:10A7900070B5074C074D2146284600F05BF90028AC
:10A7A00005D021462846BDE8704000F046B970BD8E
:10A7B00000040001005800402DE9F041794E7A4F25
:10A7C0003146384600F039F9384600F055F9774AF5
:10A7D0000025811A764C904245D00ADC10287DD0A5
:10A7E000B0F5806F24D131463846BDE8F04100F025
:10A7F00024B9704E4239B1F580211BD0022917D1FE
:10A800002078012828D0A078012811D1207931188A
:10A81000401C20710978384600F09FF920790428FF
:10A8200006D12571A57000203554401C0428FBDB9F
:10A83000BDE8F081207801280CD0A0780128F7D15C
:10A8400020793118401C207109783846BDE8F04164
:10A8500000F083B96178F8E76178384600F07DF957
:10A860002570FF207AE0E0780126002838460FD0D6
:10A8700000F070F96179504A0A44491C6171107006
:10A8800060790428D4D1E57065714C480670CFE733
:10A8900000F060F94A49E528087041D01BDCA42883
:10A8A0006AD00CDCA0285DD0A1285FD0A22861D09E
:10A8B000A328BDD1BDE8F041262003F0FDBFA528A7
:10A8C0005ED0E22824D0E32826D0E428B0D1BDE829
:10A8D000F04100F083BAEA2832D000E052E00BDC0D
:10A8E000E62821D0E72823D0E82825D0E9289FD1E1
:10A8F000BDE8F04100F008BBEB2825D0EC2897D04C
:10A90000EE2825D0F82893D1BDE8F041FFF7AEBE80
:10A91000BDE8F04100F070BABDE8F04100F064BA63
:10A92000BDE8F04100F054BABDE8F04100F048BA8B
:10A93000BDE8F04100F03CBABDE8F04100F0DEBAFD
:10A94000BDE8F041FFF7EABCBDE8F041FFF7FABB14
:10A9500026701C488068C00602D5C320607067E777
:10A960003C20FBE7BDE8F04103F098BFBDE8F041B3
:10A9700003F08CBFA6705BE7BDE8F04103F088BF31
:10A98000E67055E710480178384600F0E6F80F49C0
:10A99000384600F05FF83846BDE8F041012100F08C
:10A9A0004FB80000000400010058004040000200C1
:10A9B0001C0200201E010020180100200A010020B6
:10A9C0001D010020001001401C01002010000002A9
:10A9D00008B54FF44060ADF8000003208DF8020088
:10A9E0001C208DF8030069460148FFF7B9FD08BD3A
:10A9F000000C014038B521208DF8000000248DF8AE
:10AA000001408DF8024001208DF80300684600F0F7
:10AA100007FA22208DF800008DF80240684600F009
:10AA2000FFF938BD10B50121880500F073FA012146
:10AA3000BDE81040082000F085BAC9438182704704
:10AA40000029018802D041F0010101E021F001015B
:10AA50000180704710B5034600209A884FF4E064E7
:10AA600004EA11449B8A224021F07F410B4202D02C
:10AA7000002A00D0012010BD818A008B41EA0041EC
:10AA800021F07F407047002A828801D00A4300E00D
:10AA90008A4382807047000070B50446808886B083
:10AAA0000D4620F03F06684600F064FA27490298F8
:10AAB000B0FBF1F189B20E43A680228822F0010298
:10AAC0002280234B2A689A421CD85200B0FBF2F035
:10AAD00080B2042800D20420491C2184A08320884D
:10AAE00040F00100208020884FF6F5310840A98809
:10AAF0006A89114301432180A8892989084320815B
:10AB000006B070BDEB88A3F53F46FF3E0BD002EBCD
:10AB1000C20303EB0212B0FBF2F080B240F48040BB
:10AB2000020506D007E002EB4202B0FBF2F080B271
:10AB3000F6E740F001004FF4967251434FF47A72F9
:10AB4000B1FBF2F140F40040C6E7000040420F00C4
:10AB5000A0860100008AC0B27047018270473EB5EE
:10AB60004FF4E06000F08EF909208DF80800012014
:10AB70008DF8090002208DF80A0000248DF80B40A2
:10AB800002A800F04DF9082000908DF80440102034
:10AB90008DF805008DF806406846FFF787FB3EBD3F
:10ABA0007FB50121042000F0CDF904208DF80F00BD
:10ABB0000825ADF80C5003208DF80E0003A91548A8
:10ABC000FFF7CEFC0121084600F0BCF9032100206C
:10ABD000FFF780FC4FF4E06000F054F909208DF895
:10ABE000080001248DF8094002208DF80A008DF834
:10ABF0000B4002A800F014F900208DF8040010208A
:10AC00008DF8050000958DF806406846FFF74EFB6D
:10AC10007FBD00000008014010B5044600F03DF87B
:10AC20002046BDE81040FFF77BBA2DE9F04105460C
:10AC30000E4642F22830FFF7EFFF41F2941000F089
:10AC40001EF800244FF40C774FF4C8680DE0002D77
:10AC5000384603DAFFF7E0FF404602E0FFF7DCFF8B
:10AC6000384600F00CF86D00641CB442EFDB384647
:10AC7000FFF7D2FFBDE8F0410020AFF3008010B530
:10AC8000044600F005F82046BDE81040FFF748BA3A
:10AC900000220821C80600F05CBE01220821C80677
:10ACA00000F057BE2DE9F04304464FF0804989B0CB
:10ACB000484600F067FE0121084600F02BF901210B
:10ACC000042000F03FF90420ADF81C0018208DF896
:10ACD0001F0003258DF81E5007A91A48FFF740FCF6
:10ACE0004FF47A7004FB00F7174E0024B6FBF7F020
:10ACF0004FF00108ADF80400ADF80080ADF8064053
:10AD0000ADF802408DF808406946484600F080FFE3
:10AD10006020ADF80C00B6FBF7F0B0FBF5F0ADF835
:10AD20001200ADF81440ADF80E8003A9484600F0BB
:10AD30002FFF0121484600F01AFEFFF7A9FF09B0D6
:10AD4000BDE8F08300080140005125021CB507F062
:10AD500063F900281CD09E208DF80000E7208DF8B4
:10AD600001006946102000F051FC012407F054F95D
:10AD700000280DD000208DF800006946082000F062
:10AD800045FC01A9002007F012F9012801D104B106
:10AD90001CBD00201CBD0000C20704494FF080000C
:10ADA00001D0486170470861704700000010014001
:10ADB00002494FF48070086070470000100801409D
:10ADC00002494FF480700860704700001408014089
:10ADD000014940204861704700100140014940206E
:10ADE000086170470010014002494FF4007008618B
:10ADF000704700000010014002494FF400704861A4
:10AE0000704700000010014000F01F020121914036
:10AE10004009800000F1E020C0F8001170470000F8
:10AE200030B50F23C27801780125F2B1144A1268B7
:10AE300001F1E02102F4E062C2F5E062120AC2F11F
:10AE40000404D3404278A24084781C401443220179
:10AE500081F80024007800F01F018D404009800037
:10AE600000F1E020C0F8005130BD01F01F00854026
:10AE70004809800000F1E020C0F8805130BD00009A
:10AE80000CED00E0024908430249086070470000E9
:10AE90000000FA050CED00E0BFF34F8F0448016895
:10AEA000044A01F4E06111430160BFF34F8FFEE7F4
:10AEB0000CED00E00400FA0502490A6842EA80004D
:10AEC00008607047007000400748016841F00401C5
:10AED0000160016841F0020101600448016841F02D
:10AEE0000401016030BF70470070004010ED00E0C9
:10AEF0000149C1F8A000704700000E42014901203D
:10AF000008607047100C014001490120086070473B
:10AF1000140C0140044A0029D16901D0014300E02A
:10AF20008143D1617047000000100240044A0029AB
:10AF3000116901D0014300E08143116170470000B5
:10AF400000100240044A0029916901D0014300E049
:10AF5000814391617047000000100240044A0029BB
:10AF6000D16801D0014300E08143D1607047000007
:10AF70000010024030B5204A5168204B11F00C01FE
:10AF800003D0042901D0082901D0036012E05168E0
:10AF9000536801F470114FF0020413F4803F04EB86
:10AFA000914102D053689B0301D5154B00E0134B30
:10AFB0005943016051680F2303EA1111114B5C5C86
:10AFC0000168E14041605468072505EA14241C5DCE
:10AFD00021FA04F48460546805EAD4241B5DD94046
:10AFE000C1605268032303EA9232064B1B1F9A5C2E
:10AFF000B1FBF2F1016130BD0010024000127A0095
:10B0000000093D00D80100200149C1F8D80070476F
:10B0100000004242034A52780AB100F005B800F03D
:10B020001FB90000340300202DE9F04F8A4B8946F8
:10B03000202701461F6010251E1D35601D60C007BA
:10B0400001D01F6000E0376035601D604808C4070C
:10B0500001D01F6000E0376035601D600A18880865
:10B06000C40701D01F6000E0376035601D600244F6
:10B07000C808C40701D01F6000E0376035601D605C
:10B080001044C00701D01F6000E0376035601D60CC
:10B09000376035601D601F6035601D60DFF8B8A146
:10B0A000AAF1100ADAF8002022F4700242F4000239
:10B0B000CAF800201F60DFF8A4B19BF81400021E3C
:10B0C00003D035601D60401EFBD13560DFF88881FC
:10B0D000A8F10808D8F80000800601D5012000E09A
:10B0E00000201D603560D8F80040A40601D5012479
:10B0F00000E000241D6040EA44003560D8F80040BC
:10B10000A40601D5012400E000241D6040EA84006B
:10B1100001280CD0022879D0042877D0213203D01E
:10B1200035601D60521EFBD11F60BDE8F08F89079E
:10B130003CD50024224620213560D8F800C05FEAC3
:10B140008C6C02D54FF0010C01E04FF0000C1D603B
:10B150006408624444EACC74491EEDD12946356046
:10B16000D8F800C05FEA8C6C02D54FF0010C01E00A
:10B170004FF0000C196082EA0C02D20700D00820C0
:10B18000B9F1000F01D0C9F800409BF814201AB1A2
:10B1900031601960521EFBD1DAF8002022F47002EF
:10B1A00042F44012CAF80020376024E01AB135603A
:10B1B0001D60521EFAE7DAF8002022F4700242F411
:10B1C0004012CAF8002037600024D9F8001020226D
:10B1D0005FEAC17C01D01F6000E0376035601D6010
:10B1E0000C444908521EF3D1E10701D01F6000E072
:10B1F000376035601D609BF80810002994D03760D7
:10B2000035601D60491EFBD18EE7FFE79BF81540B6
:10B210004CB15FEA817C06D54FF0210C35601D6092
:10B22000BCF1010CFAD11AB135601D60521EFAE76B
:10B23000DAF800C02CF4700C4CF4401CCAF800C0C2
:10B240003760002CE0D08907DED4376021213560DB
:10B250001D60491EFBD167E7100801403403002040
:10B260002DE9F04FE74A0446002620208A46106068
:10B2700002F1040C1027CCF80070E34B59680D461E
:10B280006D1EFDD117600D466D1EFDD1E50701D085
:10B29000106001E0CCF80000CCF800700D466D1E87
:10B2A000FDD117600D466D1EFDD106EB0408660842
:10B2B000F50701D0106001E0CCF80000CCF8007078
:10B2C0000D466D1EFDD117600D466D1EFDD1B044BB
:10B2D000A608F50701D0106001E0CCF80000CCF81A
:10B2E00000700D466D1EFDD117600D466D1EFDD11F
:10B2F0004644E5085FEAC57801D0106001E0CCF86B
:10B300000000CCF800708846B8F10108FCD1176045
:10B310008846B8F10108FCD13544ED0701D0106032
:10B3200001E0CCF80000CCF800700D466D1EFDD198
:10B3300017600D466D1EFDD1CCF80000CCF80070F2
:10B340000D466D1EFDD117600D466D1EFDD11060BE
:10B35000CCF800700D466D1EFDD117600D466D1EB8
:10B36000FDD1DFF8A0B2ABF1100BDBF8006026F4E2
:10B37000700646F40006CBF80060814610601D7D23
:10B380002E1E0AD0CCF800700846401EFDD1176072
:10B390000846401EFDD16D1EF4D1CCF80070084661
:10B3A000401EFDD1974D083D2868800601D501203B
:10B3B00000E0002017608846B8F10108FCD1CCF805
:10B3C00000700B465B1EFDD12B689B0601D5012347
:10B3D00000E0002317608846B8F10108FCD140EA7C
:10B3E0004300CCF800700B465B1EFDD12B68AE46C7
:10B3F0009B0601D5012300E0002317600D466D1E5A
:10B40000FDD140EA8300012814D0022871D004281D
:10B410006FD021360AD0CCF800700B465B1EFDD1F0
:10B4200017600B465B1EFDD1761EF4D1C2F800906A
:10B43000BDE8F08FA30750D5002635462024CCF870
:10B4400000700B465B1EFDD1DEF800309B0602D576
:10B450004FF0010801E04FF0000817600B465B1E3B
:10B46000FDD17308454443EAC876641EE7D13C46E3
:10B47000CCF80070DFF890810B465B1EFDD1DEF842
:10B4800000309B0601D5012300E000231460491E13
:10B49000FDD15D40E90700D00820BAF1000F01D0CE
:10B4A000CAF8006098F8143063B1D8F80450CCF8AA
:10B4B00000402946491EFDD114602946491EFDD190
:10B4C0005B1EF4D1DBF8003023F4700343F4401327
:10B4D000CBF80030CCF800903FE05EB1CCF80070C3
:10B4E0000B465B1EFDD117600B465B1EFDD1761E21
:10B4F000F3E746E0DBF8004024F4700444F4401421
:10B50000CBF80040CCF800900026DAF80030202577
:10B51000C846DC07444601D0146001E0CCF8004086
:10B52000CCF800700C46641EFDD117600C46641EFA
:10B53000FDD11E445B086D1EEBD1F307434601D0DD
:10B54000136001E0CCF800303C46CCF800700B46AC
:10B550005B1EFDD11460491EFDD12B490C7A002CD5
:10B560003FF464AFCCF800904D68CCF800702946E9
:10B57000491EFDD117602B465B1EFDD1641EF4D120
:10B5800054E7214B93F81580B8F1000F0DD0A307B5
:10B590000BD52125CCF800700B465B1EFDD1176042
:10B5A0000B465B1EFDD16D1EF4D156B1CCF8007078
:10B5B0000B465B1EFDD117600B465B1EFDD1761E50
:10B5C000F3E7DBF8005025F4700545F44015CBF89F
:10B5D00000504D46CCF80090B8F1000F0FD0A307F3
:10B5E0000DD4CCF800502124CCF800700B465B1E23
:10B5F000FDD117600B465B1EFDD1641EF4D11560B2
:10B6000016E700001008014034030020F0B5134C89
:10B610000023DFF844C020271A46ACF1040E1026A0
:10B62000656816E012B911F8013B0822DC0702D068
:10B63000CEF8007001E0CCF80070CCF800602C4629
:10B64000641EFDD1CEF800602C46641EFDD15B085F
:10B65000521E401EE6D2F0BD140801403403002003
:10B660000CB50022264800920192016841F4803115
:10B6700001604FF4A063016801F400310191009969
:10B68000491C0091019911B900999942F3D10168BF
:10B69000890333D5012101911A490A6842F0100249
:10B6A0000A600A6822F003020A600A6842F0020295
:10B6B0000A604168416041684160416841F48061CD
:10B6C0004160416821F47C114160416841F4E81116
:10B6D0004160016841F08071016001688901FCD519
:10B6E000416821F003014160416841F0020141607D
:10B6F0004168C1F381010229FAD10CBD01920CBD50
:10B700000010024000200240F8B54FF4FE74012101
:10B710002046FFF717FC04218DF8031003218DF854
:10B7200002104FF6FF71ADF8001069463748FEF77A
:10B7300017FF69463648FEF713FF69463548FEF79E
:10B740000FFF69463448FEF70BFF69463348FEF7A2
:10B7500007FF69463248FEF703FF69463148FEF7A6
:10B76000FFFE00212046FFF7EDFB4FF4800400218F
:10B770002046FFF7CFFB251200212846FFF7E2FB0A
:10B78000660000213046FFF7C5FBA70100213846BF
:10B79000FFF7C0FB0020FFF7ABFB002007F084FBA6
:10B7A000DFF884C000DFFEF761FF30BF1F490020D3
:10B7B00008700120DFF878C000DF01213046FFF774
:10B7C000A9FB01212846FFF7BDFB01212046FFF719
:10B7D000A1FB01213846FFF79DFB03F04FFDFEF76B
:10B7E0008DFEFEF775FF02F07BFD0B480830006808
:10B7F000400702D5FEF7ACFC01E0FEF795FDFFF730
:10B80000E7F8012007F050FBF8BD000000080140F8
:10B81000000C0140001001400014014000180140DC
:10B82000001C014000200140E51401080B0100202C
:10B83000051301081CB500204FF4FE74019001218E
:10B840002046FFF77FFB04218DF8031003218DF8BC
:10B8500002104FF6FF71ADF8001069461948FEF767
:10B860007FFE69461848FEF77BFE69461748FEF7DB
:10B8700077FE69461648FEF773FE69461548FEF7DF
:10B880006FFE69461448FEF76BFE69461348FEF7E3
:10B8900067FE00212046FFF755FB00214FF4800092
:10B8A000FFF738FB00214FF48040FFF74BFB0021EE
:10B8B0004FF40000FFF72EFB0120FFF7FDFAFFF722
:10B8C00003FBFEE700080140000C014000100140AE
:10B8D0000014014000180140001C014000200140FC
:10B8E0000F4810B5016841F00101016041680D4A3F
:10B8F0001140416001680C4A11400160016821F467
:10B9000080210160416821F4FE0141604FF41F0174
:10B910008160FFF7A5FE05494FF00060086010BD8B
:10B92000001002400000FFF8FFFFF6FE08ED00E007
:10B9300010B501218C07204600F0DEF8002807D062
:10B940000121204600F010F8BDE8104004F074B862
:10B9500010BD10B50123048C8B409C430484038CE0
:10B960008A401343038410BDC943018270470029F4
:10B97000018802D041F0010101E021F001010180C4
:10B98000704700004B4910B5884202D10121C41410
:10B9900086E0B0F1804F09D0474988420DD101219E
:10B9A0000220FFF7C3FA0021022064E001210846CB
:10B9B000FFF7BCFA002101205DE04049884206D132
:10B9C00001210420FFF7B2FA0021042053E03C4992
:10B9D000884206D101210820FFF7A8FA002108209B
:10B9E00049E03849884206D101211020FFF79EFA2C
:10B9F000002110203FE03449884206D10121202057
:10BA0000FFF794FA0021202035E03049884202D126
:10BA10000121441444E02E49884202D10121CC0482
:10BA20003EE02C49884202D101210C0538E02A4928
:10BA3000884202D101214C0532E02849884206D1D2
:10BA400001214020FFF772FA0021402013E0244931
:10BA5000884206D101218020FFF768FA002180206A
:10BA600009E0204988420AD1841501212046FFF7C8
:10BA70005DFA00212046BDE81040FFF757BA1A4989
:10BA8000884202D101210C040AE01849884202D1FF
:10BA900001214C0404E0164988420AD101218C049A
:10BAA0002046FFF75BFA2046BDE810400021FFF773
:10BAB00055BA10BD002C01400004004000080040B1
:10BAC000000C004000100040001400400034014011
:10BAD000004C01400050014000540140001800405B
:10BAE000001C004000200040004001400044014094
:10BAF00000480140808C704702460020138A9289DA
:10BB00000B4202EA010202D0002A00D00120704755
:10BB1000002A828901D00A4300E08A43828170476B
:10BB20001FB54FF080442046FFF72CFF0121084647
:10BB3000FFF7F0F94FF4E060FFF7A4F91C208DF84F
:10BB40000C0001218DF80D108DF80E108DF80F10DE
:10BB500003A8FFF765F90021ADF802104720ADF802
:10BB6000000042F20F70ADF80400ADF806108DF839
:10BB700008106946204600F04BF801221146204685
:10BB8000FFF7C6FF01212046FFF7F1FE1FBD0000B1
:10BB900070B5028C22F480720284028C8388848BBC
:10BBA0000D8824F0730425430E894FF6FF7422F4A8
:10BBB000007204EA062616434A8804EA0222324347
:10BBC000104EB04202D0104EB04215D122F40066A1
:10BBD0004A8923F4405304EA0222324322F4806665
:10BBE0008A8804EA022232438E8904EA06161E433A
:10BBF000CB8904EA0313334383808583C988818713
:10BC0000028470BD002C01400034014081847047E3
:10BC100030B502881B4C1C4DA0420DD0A8420BD061
:10BC2000B0F1804F08D0194B984205D0184B98427C
:10BC300002D0184B984203D122F070034A881A436D
:10BC4000154B984206D0154B984203D022F440730E
:10BC5000CA881A4302808A8882850A880285A0429F
:10BC60000AD0A84208D00E4A904205D00D4A904210
:10BC700002D00D4A904201D1097A018601218182C8
:10BC800030BD0000002C01400034014000040040A1
:10BC900000080040000C004000100040001400406C
:10BCA0000040014000440140004801402DE9F041BE
:10BCB000354F6021384600F097F820B140F26771A7
:10BCC000384600F081F840F225542146384600F00D
:10BCD0008BF84FF400760025D0B12146384600F0AD
:10BCE00073F82A4808F046F80446384600F00AF986
:10BCF000C2B26CB12548D0F800124318491CC0F8F4
:10BD000000121A70D0F80012B14201D3C0F80052EC
:10BD100040F227742146384600F066F8002830D0FB
:10BD2000A0462146384600F04FF8194CD4F80002DE
:10BD3000D4F80412884201D0012000E000204FF422
:10BD4000B07214A102F028FBD4F804022118401CA0
:10BD5000C4F804020978384600F0D8F8D4F8040290
:10BD6000B04201D3C4F80452D4F80002D4F804124B
:10BD7000884206D141463846BDE8F041002200F035
:10BD800052B8BDE8F0810000003801409028002042
:10BD9000882600202E2E5C2E2E5C2E2E5C736F7556
:10BDA0007263655C6869635F68616C5C73746D3352
:10BDB000325C73746D33326631303378625C756136
:10BDC00072742E63000000000A0A01219140C943E9
:10BDD000018070470029818902D041F4005101E0BF
:10BDE00021F400518181704770B501F01F050126D3
:10BDF0000024C1F3421306FA05F2012B0FD0022BE7
:10BE00000FD0838A4FEA11210088134206FA01F607
:10BE100000EA060001D000B10124204670BD8389EC
:10BE2000F0E7038AEEE710B5C1F3421301F01F04F7
:10BE30000121A140012B07D0022B07D01430002A8A
:10BE4000026805D00A4304E00C30F8E71030F6E74A
:10BE50008A43026010BD000030B50446008A85B0F8
:10BE60000D464CF6FF710840E98801432182A08904
:10BE70004EF6F3110840A9882A8911436A890243C2
:10BE80001143A181A08A4FF6FF410840A9890143CF
:10BE9000A1826846FFF76EF81948844201D10398E1
:10BEA00000E00298A189090400EBC00101EB001039
:10BEB000296801D5490000E08900B0FBF1F0642257
:10BEC000B0FBF2F109010B096FF018056B4300EBB1
:10BED0008300A3891D044FF0320306D503EBC00095
:10BEE000B0FBF2F000F0070005E003EB0010B0FB40
:10BEF000F2F000F00F000843208105B030BD0000D3
:10BF0000003801408088C0F308007047C1F3080181
:10BF100081807047002070470348D0E90410081A58
:10BF200002490988081A704754020020FC48010899
:10BF300070B50B4D0C460346D5E90C0188420BD970
:10BF4000401A844200DD044622461846FDF7BAFA3C
:10BF5000686B2044686300E00024204670BD000048
:10BF600054020020002070472DE9F041194F0C4683
:10BF70000646D7E90401401A17490988081A00281B
:10BF800002DC0020BDE8F081844200DD0446D7E9F0
:10BF90000602002590420FD3104B021919448A4221
:10BFA0000AD30D1A98462A463146FDF78BFA2E44DD
:10BFB000641B4046C7F8188034B122463146FDF76D
:10BFC00081FAB8692044B86139696019014439615E
:10BFD000D8E7000054020020FC4801089A2B0020FA
:10BFE00010B5054C6068002805D10120606000F0A4
:10BFF00005F80020606010BD540200202DE9F047D4
:10C00000244CA06800283ED0D4E90401421AE0681C
:10C010004FF0000652EA000137D021461E4FC96991
:10C02000DFF87880DFF878901E4D7AB1A069814200
:10C0300005D338888B182844834200D3421A99F8D4
:10C04000003038F81300904200DA02461648E660E5
:10C05000007840F0800002F001F9E1690144E161FB
:10C060006269024462613B882B448B4200D1E561E6
:10C07000216991420BD199F8002038F812108142C1
:10C0800005D10120E060BDE8F087A660FBE7E6602F
:10C09000F9E7000054020020FC48010800490108AB
:10C0A000970200209A2B0020FA48010810B50B4C8B
:10C0B000206A18B1A06A401CA06210BD0120206255
:10C0C000606200F00DF8002060622062D4E90C018B
:10C0D0008842F2D0401AFFF745FF10BD54020020FD
:10C0E00010B5134C1348164B216B0A1A12481B78D3
:10C0F0000088821A114830F8130082420EDB114882
:10C10000007801F00BFD216B08442063A06A002831
:10C110000CD0616A002909D1401E06E00120E062CE
:10C12000606A002802D0A06A401CA06210BD000016
:10C1300054020020DA2B0020FE48010800490108C3
:10C1400097020020FB48010810B50446400702D5BD
:10C150002046FFF7ABFF200704D52046BDE810407E
:10C16000FFF73EBF10BD70470020704700207047AA
:10C1700010B50C4800F01EF8002812D00948FDF751
:10C18000F4FA0949020A08704A70020C8A70000E1B
:10C19000C870044802790A7142794A7180798871BD
:10C1A000012010BD8C020020982A002010B500F05C
:10C1B00017F810BD70B50446084805F037FB002895
:10C1C0000BD0064D21462868FDF7DAFA2879A071D0
:10C1D00068796071A8792071012070BD200300206A
:10C1E00005F02EBB05F08EBB0120704710B504464C
:10C1F000FDF7BBFA07490860A079087160794871BA
:10C20000207988710020C871BDE81040084605F00B
:10C2100085BB00002003002010B5114800241149FF
:10C2200044608460C4600461C0E90541C0E907144A
:10C2300044620D498462C0E90B4141630480FFF709
:10C24000D1FF07494FF416503831FDF799FA0448E9
:10C2500008213830047144718171FFF7C7FF10BDA8
:10C26000540200209A2B0020DA2B002010B5FFF793
:10C27000D3FF10BD70B5174C00250126206A50B9B8
:10C28000D4E90C01884206D11349884203D02163C6
:10C29000E56225626163A06A70B1206A60B9E06AF4
:10C2A00050B92662FFF71CFF2562D4E90C018842D1
:10C2B00002D0401AFFF756FED4E90101084308D125
:10C2C000D4E90401884204D06660A660FFF796FEB8
:10C2D000656070BD54020020DA2B002010B50B4CB5
:10C2E000DFF82CC028B100DF2060002006F0D9F96B
:10C2F0000AE000DF2168401AB0F5967F01D30120E3
:10C3000000E0002003F044FC012010BD1C030020CD
:10C31000B11601080020704700207047024910B58F
:10C320000880FFF761FF10BD5402002070B50A4C71
:10C330002046E578FDF719FA65F31F600749FDF718
:10C340001FFA06482179017161794171A1798171E2
:10C35000FFF74CFF70BD0000982A00208C020020DF
:10C3600000B50346FDF7FCFE43F2300118465DF8C8
:10C3700004EBFDF709BF0000F0B58278224D41794A
:10C38000047902F00F0344EA012116066F682C8835
:10C3900002F00F0207EB021204D5491C21F0010143
:10C3A000146011E094603E2909D91F3121F01F016A
:10C3B0004FF0FF3404EB411444F4004403E0491C03
:10C3C00021F001014C02D4602A880A442A80C078F6
:10C3D00010F0030006D0012807D0022808D0032857
:10C3E0000AD107E04FF4007106E04FF4806103E0EA
:10C3F000002101E04FF4C061044A194302EB8300BD
:10C40000C0F8001CF0BD00001402002000500040E5
:10C41000002802D10149D020088070471402002072
:10C4200000F04ABA0949CA1350B10120086000203F
:10C4300008600B1D18604FF4E0500860044803E0EA
:10C44000032008600248001F02607047405C004003
:10C450001408014010B50B4C0B48A28800788242AA
:10C4600000D902461AB90749002014390871802002
:10C47000216801F0F3FE216801442160A188081AB7
:10C48000A08010BDA8020020DC48010810B5064CB1
:10C490000020A288216801F041FB2168014421604D
:10C4A000A188081AA08010BDA802002070470021B2
:10C4B000FDF76ABE43F22001FDF766BE2DE9F047A5
:10C4C000684F0446A7F1080580074FF00009A5F161
:10C4D000140620D501F08CFE3878C009FFF7E6FF7E
:10C4E000F888A8803878C0F3411111B1012966D1CC
:10C4F00057E07978DFF870810C2960D2DFE801F02D
:10C50000060C5F135F18275F2B31384601F01AFCC9
:10C510001FE0FFF79FFF5EE0002005E001F078FEDE
:10C52000D8F8000039E0012001F04CFCC0B3F5E779
:10C5300010F01F0F43D1B878012140F08000307017
:10C5400000F07F0001F046FE01F062FE43E001F0E2
:10C550000FFB28B3DDE710F01F0F30D141481B3827
:10C5600012E001F07FFCD8B101F052FE3F4813E029
:10C5700000F01F00012822D1707888B13879B17895
:10C5800088421CD23A4908442860C2E701F030FDD5
:10C5900030B101F03DFE37480068E0B180471AE055
:10C5A0000DE010F01F000AD0012808D100F0FAF8C1
:10C5B00088B900F04DF970B900F0A2F858B9387890
:10C5C000000603D4F88808B1002000E0802001F0C4
:10C5D0000BFEA5F80490600721D5387800061CD41E
:10C5E000A888E0B1FFF752FFA888C0B93878C0F337
:10C5F000411161B101290AD110F01F0007D00128B3
:10C6000005D100F065F850B900F036F838B980204F
:10C6100001F0EAFDA5F8049001E001F0FFFD20071C
:10C6200012D53878000606D5A888317908430BD092
:10C63000FFF710FF08E03078010605D500F07F0015
:10C640003070002101F0C6FD600602D50020FFF722
:10C6500087FE200604D5BDE8F0478020FFF780BEA6
:10C66000BDE8F087B0020020604901085849010880
:10C67000080200205C49010810B51249124A0879E5
:10C680001278904203D0114A1278904217D148781C
:10C6900020B1022805D0202811D10DE0FFF73AFE85
:10C6A00005E0C878897841EA0020FFF735FE30B10F
:10C6B00001F0AEFD012010BDFFF738FEF7E70020C6
:10C6C00010BD0000B0020020F8480108F948010838
:10C6D00010B50948094A01791278914209D1407888
:10C6E000092806D100F0EEFA18B101F091FD012001
:10C6F00010BD002010BD0000B0020020DD48010880
:10C7000070B52349234A08791278904203D0224A0F
:10C71000127890423AD11E484978204CC2788378EA
:10C720001F4D43EA022004291FD007DC79B10129FB
:10C730000FD002290BD0032928D111E0202906D0DF
:10C74000212919D022291AD023291FD11AE02C60BF
:10C7500010E0FFF70BFD05E02C60FFF77BFE09E022
:10C76000FFF702FD0028F7D110E0FFF7D3FB0BE045
:10C7700001F04EFD012070BDFFF7FAFCF2E7FFF774
:10C78000CDFD01E0FFF7AAFD0028F1D1002070BD2A
:10C79000B0020020F8480108F9480108982A002052
:10C7A000A80200202DE9F041224E23493079097872
:10C7B00088423CD17078214C214D224F0C2836D232
:10C7C000DFE800F03506212C3535353535162431B6
:10C7D00000F094F958B3F078012802D0032803D070
:10C7E00003E01948206000E02560FFF733FE12E007
:10C7F000F078022802D0032803D00CE01348206010
:10C8000009E0256007E000F061F909E000F034FA82
:10C810000BE001F0FDFC0120BDE8F08100F064F9BF
:10C8200028B12760E1E700F043FA0028F1D10020A9
:10C83000F2E70000B0020020DD480108A802002055
:10C8400012020020982A0020D92A00201A2B00204A
:10C8500010B51548154A01791278914222D1014646
:10C860004278C8788B788C7943EA0020CB79FE2A0D
:10C8700044EA032109D0FF2A14D198B991B901F0F3
:10C8800091F878B101F0C4FC0AE058B9012909D146
:10C8900000F05CFD30B1074905480860FFF7DAFD9C
:10C8A000012010BD002010BDB0020020EE4801089C
:10C8B000982A0020A8020020074800214170C1608A
:10C8C00001614161418081808161C161C1800181DB
:10C8D0000162418170470000B80200202DE9F04755
:10C8E000484EB0887188494FDFF81C817D1C0024B8
:10C8F000884216D3B069A0B97461B4800123397835
:10C900007A1C184606F0D4FA7080708848B17761B6
:10C9100098F80000012801D8756102E07088401C79
:10C92000708070884FF00109B0BBF06808B1F46006
:10C9300032E0316981B398F8000001280DD83C70CD
:10C94000B48002237A1C0021012006F0B1FA708025
:10C95000708800B1756134611EE03D78C846202DB5
:10C9600000D3002508FA05F0084218D0681CC1B2AF
:10C970003970B48002237A1C012006F099FA708085
:10C98000708818B177617088401C7080306908FA2F
:10C9900005F820EA08003061708830B902E06D1CAB
:10C9A000EDB2DCE7B069002828D07088B188DFF8E4
:10C9B0006480401A85B2164F98F8000037F81000CE
:10C9C000A84200D2054614482A467169007840F012
:10C9D000800001F043FC7069104928447061B08800
:10C9E000284480B2B0800988884209D298F80000B3
:10C9F00037F81000A84203D1C6F81890BDE8F087B8
:10CA0000B461FBE7B8020020E8480108D82A0020FA
:10CA1000E448010897020020DE480108EA480108BE
:10CA2000F8B51B4C1B4D1C4E2089002710B9E56141
:10CA30003188E180E1880A1A1848E169007801F03C
:10CA40006DF80004E169000C0144E16121890144B1
:10CA50008BB2238109D031888B4206D2114A10490A
:10CA6000127831F81210814210D90F480178012054
:10CA70000129009003D80021064A022003E029780A
:10CA80006A1C02205B1E06F0C9FA2781F8BD00006F
:10CA9000B8020020192B0020EC480108DF480108EB
:10CAA000E448010897020020E948010810B504464F
:10CAB000000702D52046FFF711FF600704D5204686
:10CAC000BDE81040FFF7ACBF10BD000003480449AB
:10CAD0008078085C0349087001207047B00200208C
:10CAE00010020020982A002010B506F0DFF9024954
:10CAF0000870012010BD0000982A00200B4910B5D5
:10CB0000C8780022012804D0022804D0032806D1C6
:10CB100003E0074A02E0002010BD064A521C897853
:10CB2000002306F0C5F9012010BD0000B00200206E
:10CB3000D82A0020110200202DE9FC5F454800782A
:10CB400000287DD0444D042300262978B146481C96
:10CB500028704248007800EB400293405B1E01922F
:10CB6000994202DB85F8009001263D4A0024118895
:10CB7000FF2901D2491C11803A4931F81000384987
:10CB800000900988884200D1012439490020DFF84B
:10CB9000D8804FF0010BDFF8D4A091F800E045E019
:10CBA000002276B11AF800105346FF2901D2491C21
:10CBB000195418F8001021B11AF800308B4200D334
:10CBC0000122019918F8007002238B4007FA03F143
:10CBD000009B994202DA0FB1012300E000233CB12F
:10CBE00033B1D5F810C00BFA00F141EA0C0129610C
:10CBF0002049095C8F420ED01AF800708F4208D38A
:10CC0000D5F810C00BFA00F747EA0C072F6185F83A
:10CC1000009008F800103AB123B92A690BFA00F124
:10CC2000114329610AF80090401CC0B27045B7D387
:10CC300014B10B49A1F800902869002808D000E041
:10CC400006E06888002803D1BDE8FC5FFFF746BE18
:10CC5000BDE8FC9F95020020B8020020970200204A
:10CC60000C020020E04801080F0200200E02002004
:10CC7000E848010810020020094809498078C9786D
:10CC800010B1084A815409E0084A0020064B127886
:10CC900002E01954401CC0B29042FAD30120704700
:10CCA000B00200200F02002010020020E848010816
:10CCB000034810B5807806F0AFF9012010BD0000E0
:10CCC000B002002038B50D490022C878012804D0F0
:10CCD000022804D0032806D103E0002038BD084A0A
:10CCE00000E0084A521C00230093CB798C798978A4
:10CCF00044EA032306F092F9012038BDB002002077
:10CD0000192B0020110200202DE9F0473B4D2C6823
:10CD100060050AD501F004FA06F022FA38480068E6
:10CD200000B180476FF480602860200508D501F0CD
:10CD30007FFA3448006800B180476FF400602860D3
:10CD4000E00408D501F080FA2F48006800B1804760
:10CD50006FF480502860A00506D52C48006800B10B
:10CD600080476FF400702860294E600406D5316852
:10CD700009B1022088476FF480402860DFF8949062
:10CD8000254FA00406D5316809B1012088476FF40A
:10CD900000502860A8464146D8F80000020427D574
:10CDA0006FF400420A6000F00F0509EB8506D6F823
:10CDB000004C20040ED540F68F7104EA0100C6F83D
:10CDC000000C57F8251029B1200501D5022000E0FC
:10CDD000042088472006DED548F60F700440C6F8C8
:10CDE000004C57F825100029D5D008208847D2E7F5
:10CDF000BDE8F0471420FEF707B80000445C00408F
:10CE000004490108084901080C49010810490108B2
:10CE100014490108005000401849010810B50020CD
:10CE2000FEF7F2F80648C16941F40001C16114201F
:10CE3000FDF7EAFF03494FF40040086010BD000011
:10CE4000001002401008014070B500F00DF90028F4
:10CE50002AD016480224164E04704470032034630E
:10CE6000307014480546FCF780FC022808D91149A7
:10CE700020461F39FCF784FC29462046FCF780FC3D
:10CE80000D4822460949007840F0800001F0E6F99B
:10CE90002846FCF76AFC316B401A2946FCF770FC07
:10CEA000044901200839087370BD00005A2B002086
:10CEB000DC020020FF2C0020EF480108114910B5CA
:10CEC0000878022808D0032810D0042812D005289A
:10CED00001D10020087010BD0B48C07B282801D06C
:10CEE000A828F8D1BDE8104000F074BABDE81040A1
:10CEF00000F098BD0548007840F0800000F0ACFDDF
:10CF0000F4E70000DC020020D82C0020EF480108E4
:10CF10001B4910B5087870B301280ED005281DD024
:10CF2000072823D01748007800F096FD1649022004
:10CF30000873BDE8104000F075BD13481F38C07B72
:10CF40002A2803D02F2805D0AA2818D1BDE81040E0
:10CF500000F01EBBBDE8104000F0AABABDE81040CA
:10CF600040F2394209A1002001F016BA00200870F1
:10CF7000086B1F2803D1BDE8104000F0E1B810BDD8
:10CF8000DC020020F0480108F72C00202E2E5C2E39
:10CF90002E5C2E2E5C736F757263655C7573625CBC
:10CFA0006D73635C757362645F6D73632E63000001
:10CFB000104910B54868C86008B1012010BD0E487E
:10CFC000FCF7D3FB68B10C480838007B000604D599
:10CFD0000A48007840F0800001E00948007800F03D
:10CFE0003BFD054901201731087300F01BFD0020AF
:10CFF00010BD0000DC020020E02C0020EF480108FA
:10D00000F0480108134810B5007900F08F010806B8
:10D0100005D501F00F004FF48032824001E001227B
:10D020008A400D48007840F080048C4210D10B48B3
:10D03000006810420CD00A48FCF797FB0949884267
:10D0400006D12046BDE810400D22054901F006B981
:10D0500010BD0000B0020020EF480108A00200202F
:10D06000F72C00205553425370B50B48FCF77DFB5D
:10D07000094C0225173440B1A4F11F00007B0006C3
:10D0800008D40648007800F0E7FC257300F0CAFCDD
:10D09000002070BD012070BDE02C0020F048010888
:10D0A00070B51148FCF761FB104C216B884202D827
:10D0B0002063032000E0042020700D480D49226BFE
:10D0C000007840F0800001F0C9F807481F3005469D
:10D0D000FCF74BFB216B401A2946FCF751FB024938
:10D0E00000201731087370BDE02C0020DC02002006
:10D0F000EF4801085A2B0020064810B5028807485F
:10D100000549007800F00AFD05490863BDE81040B4
:10D11000FFF7FEBEF64801085A2B0020F048010830
:10D12000DC02002010B50446400702D50020FFF7BE
:10D13000E3FF200703D5BDE81040FFF7BFBE10BDD9
:10D140002DE9F05F7A4E326B1F2A01D2134600E0C0
:10D150001F230020774D784902E00C5C2C54401CC2
:10D160009842FAD3DFF8D8810127DFF8D0A198F8E8
:10D1700000001F2A40F0800B69D16E48FCF7F5FAD9
:10D180007049884263D1281DFCF7EFFA694C1F34BF
:10D19000211DFCF7F5FAA4F11700FCF7E6FA04F1FB
:10D1A0000801FCF7EDFA687B18B9A87B08B11028D4
:10D1B00001D9277389E0E87B4FF002092A283ED085
:10D1C00022DC1A2850D00FDC0428F2D006DCE8B3A9
:10D1D0000328EED1BDE8F05F00F0A2BB1228E8D131
:10D1E000BDE8F05F00F0BAB8232845D007DC1B2863
:10D1F00036D01E28DDD1BDE8F05F00F0DDB825286F
:10D200003ED02828D5D147E09E2841D00FDC5528B4
:10D21000CFD004DC2F2853D03528CAD103E05A28B8
:10D2200026D09128C5D1BDE8F05F00F045BCA1280B
:10D230002AD0A3285CD0A8282ED0AA28B9D100F0E3
:10D24000ABFA002806D0287B000601E004E053E09A
:10D2500049D43770BDE8F09FBDE8F05F00F034BC02
:10D26000BDE8F05F00F00EBCBDE8F05F00F064BA0E
:10D27000BDE8F05F00F02CBABDE8F05F00F012BB33
:10D28000BDE8F05F00F0E6BABDE8F05FFFF7DCBD97
:10D29000BDE8F05F00F09ABB00F07EFA0028D9D01C
:10D2A000287B000605D586F80090BDE8F05F00F009
:10D2B00091B89AF8000000F0CFFB84F80C9004E0DD
:10D2C000287C800705D400202073BDE8F05F00F0C3
:10D2D000A9BB00F061FA0028BCD0287B000602D46C
:10D2E00037703762B6E798F8000040F08000E2E758
:10D2F000584600F0B1FB5CE74446584600F0ACFBF2
:10D300002078114C00F00F014FF4803088402168E4
:10D310005546084320609AF8000000F09DFB2878ED
:10D3200087402068074306202760307092E700009E
:10D33000DC020020D82C00205A2B0020F0480108E5
:10D34000EF48010855534243A4020020024900203F
:10D350000870012070470000982A002010B5FFF7E0
:10D3600083FE002820D0114B0020802118705970B6
:10D3700002219970D97020241C7158719871D8714C
:10D380000B48016808200A7812B11A54491C00E0C1
:10D390001C54401CC0B22428F5D30649242008633D
:10D3A000BDE81040FFF77CBE10BD00005A2B0020E6
:10D3B00004020020DC0200200548C07CC1070448AC
:10D3C00000F11F0000D00121017300F02BBB000011
:10D3D000D82C00202DE9F041304D314FDFF8C480CA
:10D3E000A969686A002688420AD33878002440F088
:10D3F000800000F031FB88F80C6000F013FB08E0BF
:10D400002A492948097830F81140E86A844200D353
:10D410000446FFF7CDFD00B90024A86A68B374B1D3
:10D42000A96AE86922460144387840F0800000F09B
:10D4300015FFA86A2044A862E86A001BE862D5E9E3
:10D440000410AA6A4143914203D1AE62696A08445A
:10D450006862144808300746FCF787F9001B394614
:10D46000FCF78EF9002C06D0E86A002803D10320CF
:10D47000287088F80C60BDE8F081002CDFD0E96AE4
:10D4800028690144491EB1FBF0F26869824200D963
:10D490000246E969686A05F021FEC1E7DC02002066
:10D4A000EF480108F72C0020F248010897020020FD
:10D4B0002DE9F041324EDFF8CC800025B169706A69
:10D4C000884208D330483563007800F0C5FA88F800
:10D4D0000C5000F0A7FAFFF76BFD20B1306B10B3D2
:10D4E000B06A10B10FE035631DE0F16A30690144A4
:10D4F000491EB1FBF0F27069824200D90246F1691F
:10D50000706A05F0EBFD0020204A336BB16A08E039
:10D51000F7690C183C5D175CBC4201D0356202E033
:10D52000401C9842F4D3346BB06A0119B162F06ABE
:10D53000071BF762D6E9042042438A4203D1B56251
:10D54000716A084470620F4808300546FCF70DF90F
:10D55000001B2946FCF714F9002C0ED017B13078C7
:10D5600005280AD1306A30B1002088F80C00BDE8E7
:10D57000F04100F057BA0120F7E7BDE8F081000064
:10D58000DC020020F72C0020F04801085A2B002074
:10D590002DE9F041DFF80481414F0026D8F818103A
:10D5A000D8F82400884208D33E48C8F83060007894
:10D5B00000F052FA3E7300F035FAFFF7F9FC08B9B3
:10D5C000C8F83060D8F83010D8F828000844D8F8E7
:10D5D0001010401E884206D9BDE8F041FD2232A15C
:10D5E000002000F0D9BE0020384907E0D8F82830E4
:10D5F000D8F81C400A5C0344401CE254D8F83020A0
:10D600009042F3D3D8F8280011000844C8F8280045
:10D61000D8F82C20A2EB0102C8F82C2022D04546D5
:10D6200092B988B129690844401EB0FBF1F46869D9
:10D63000844200D904462246E969686A05F068FD1B
:10D64000AE62686A20440CE0D5E90412514381427D
:10D6500008D1E969686A05F05BFDAE626969686ACC
:10D66000084468620E4808300546FCF77EF8D8F892
:10D6700030402946001BFCF783F8002C0BD0D8F86B
:10D680002C0018B198F80000052804D13E73BDE8BD
:10D69000F04100F0C7B9BDE8F0810000DC020020D5
:10D6A000F72C0020F04801082E2E5C2E2E5C2E2E2A
:10D6B0005C736F757263655C7573625C6D73635CDC
:10D6C000757362645F6D73632E6300005A2B0020D4
:10D6D00070B5FFF7C9FC002826D0FFF769FC0028C9
:10D6E00022D01248002106220170114B4270817035
:10D6F0001A7A0824D201C270017141718171C1711D
:10D700000C481C630546FCF730F8082808D909497D
:10D7100020461F39FCF734F829462046FCF730F83C
:10D72000BDE87040FFF7BCBC70BD00005A2B002064
:10D73000DC020020FF2C002070B5FFF795FC0028CC
:10D7400022D0FFF735FC00281ED01048032100220C
:10D7500001700F49427004240B7ADB018370C270A0
:10D760000C480C630546FCF700F8042808D9094961
:10D7700020461F39FCF704F829462046FCF700F83C
:10D78000BDE87040FFF78CBC70BD00005A2B002034
:10D79000DC020020FF2C00202DE9F0412948FBF796
:10D7A000E4FF284D00BA113D20F0FF04287D264EED
:10D7B00004430020C6E90940E87B2F280AD004DC96
:10D7C00028280BD02A281CD104E0A82810D0AA2889
:10D7D00017D109E0FFF7ECFB00282FD0E87DA97DE9
:10D7E00041EA002044BA0CE0FFF7E2FB002825D014
:10D7F0001448001DFBF7B9FF00BA20F0FF04287E93
:10D800000443306944430F48F4620938FBF7ADFF25
:10D810000C4F01260E3768B1A04211D0287B0006BC
:10D8200004D50A48007840F0800001E008480078FC
:10D8300000F012F93E7300F0F5F80020BDE8F08129
:10D840000120FBE7E92C0020DC020020EF48010862
:10D85000F048010810B5FFF707FC00281CD0FFF7BF
:10D86000A7FB002818D00D4A0D489169491E0B0EE0
:10D8700003700B0C43700B0A8370C17011690B0E9F
:10D8800003710B0C43710B0A8371C1710820106383
:10D89000BDE81040FFF704BC10BD0000DC02002012
:10D8A0005A2B002070B5FFF7DFFB002830D0FFF7C0
:10D8B0007FFB00282CD017480021174A01704170C7
:10D8C00081700821C17091690C240B0E03710B0C3F
:10D8D00043710B0A8371C1710221017211690B0C32
:10D8E00043720B0A8372C1720C4814630546FBF73E
:10D8F0003CFF0C2808D9094920461F39FBF740FF97
:10D9000029462046FBF73CFFBDE87040FFF7C8BB47
:10D9100070BD00005A2B0020DC020020FF2C0020EC
:10D9200010B5FFF7A1FB002835D01B4870211B4B19
:10D93000017000214170DC685A6832EA040406D0A4
:10D9400006248470282404734173DA6008E0DAB195
:10D95000134A127BE2B105228270202202734173C6
:10D96000C1700171417181710A22C27101724172EB
:10D970008172C1728173C173017441741220186382
:10D98000BDE81040FFF78CBB022282703A22E5E727
:10D9900081700173E3E710BD5A2B0020DC020020E8
:10D9A000F72C0020054910B5002008600449FBF75A
:10D9B000E7FE044907200870012010BDA4020020E2
:10D9C000F72C0020DC020020FFF7ECBF70B5FFF75A
:10D9D0004BFB00281DD00F4820220021027041700F
:10D9E0000D4CC1770320226320700C480949007850
:10D9F00040F0800000F032FC09480546FBF7B5FE18
:10DA0000216B401A2946FBF7BBFE05490120083966
:10DA1000087370BD5A2B0020DC020020EF4801087B
:10DA2000FF2C002010B508490848FBF7A9FE08485C
:10DA30000D220549007840F0800000F00FFC0549F8
:10DA40000520087010BD0000F72C002055534253EC
:10DA5000EF480108DC02002010B5044600F0C4FBCA
:10DA6000200605D504F00F014FF48030884001E016
:10DA70000120A04002490A681043086010BD000060
:10DA8000A00200200A4810B5817C00F11F0429B1D2
:10DA900001202073BDE81040FFF7C4BFC07C0549DA
:10DAA00000F00100486005F031FB0020F1E70000C4
:10DAB000D82C0020DC020020024900200873FFF768
:10DAC000B1BF0000F72C002010B51048FBF74DFE49
:10DAD0000E4C173478B1A4F11F00007B000604D56A
:10DAE0000B48007840F0800001E00A480078FFF71A
:10DAF000B3FF012004E0FFF75BFA002805D0002007
:10DB00002073BDE81040FFF78DBF10BDE02C002052
:10DB1000EF480108F04801087047000070B5114A4D
:10DB2000054600F00F0052680F4B02EB00108268B0
:10DB3000808903EB4203C0F309040022661C07E05E
:10DB400033F8040B01F8010B000A01F8010B521C19
:10DB5000B2EB560FF4D34FF440512846FCF714FBB8
:10DB6000204670BD1402002000600040FFF74ABA52
:10DB70002DE9FC41474BA3F11C051878A3F10804DB
:10DB800010F01F0002D001286AD16AE042484149E2
:10DB9000DE7802783F4889781C38082EC07876D223
:10DBA000DFE806F075041145757508303B482060C4
:10DBB000122053E0002A6AD018B1394820600A20A8
:10DBC0004CE03848FAE70AB9012860D018B1364865
:10DBD000009000200BE03548FAE7009A13782BB14B
:10DBE000D378967846EA03231A440092401C814277
:10DBF000F3D10098017899B32060C178827842EA25
:10DC000001202BE062B318B12948009000200BE0FE
:10DC10002848FAE7009A13782BB1D378967846EA29
:10DC200003231A440092401C8142F3D1E1E72248C9
:10DC30000090032901D0002008E001F02BFD0BE04B
:10DC400000990A780AB111440091401C99788142E8
:10DC5000F6D10098017819B120600078019006E0B3
:10DC600015E001A9684600F02BF800280DD0A18826
:10DC70000198814208D9114980B2A0800978491ED3
:10DC8000084201D1012028710120BDE8FC8100205B
:10DC9000FBE70000B0020020D94801088A490108CA
:10DCA000A64901089C490108334A0108B049010806
:10DCB000394B0108B64A0108BC4B0108DC48010891
:10DCC00030B5164A164B154CD278164D24791B7870
:10DCD000212A02D0222A1ED114E09C421BD1124AD2
:10DCE0001378124A12780BB9012A14D042B1104AA3
:10DCF000026010460F4A128810442860092007E08D
:10DD00000D4AF5E79C4206D10C4828600C48008873
:10DD10000860012030BD002030BD0000B0020020AE
:10DD2000DD480108A8020020D94801089702002018
:10DD3000334A010888490108B049010864490108CB
:10DD40008649010870B51D481C4C0078A4F10804F0
:10DD500010F01F000AD0194AA4F11405184B697875
:10DD60001279012806D0022826D109E01348163876
:10DD700020601FE001B3A87882421DD2002015E088
:10DD800002F08F00020605D500F00F064FF4803236
:10DD9000B24001E00122824009B900070CD1A86815
:10DDA000104209D0E868104000D001201870000A25
:10DDB00058702360012070BD002070BDB0020020AB
:10DDC000982A002070B5264B0246194618784988D3
:10DDD00010F01F00A3F11C0604D0012829D002284E
:10DDE00027D111E0012924D132B1012000F034FA09
:10DDF000F08840F0020005E0002000F02DFAF088E5
:10DE000020F00200F08029E0187900F08F0420064D
:10DE100005D504F00F004FF48035854001E0012561
:10DE2000A540707828B1200703D0B068284200D000
:10DE300009B1002070BD2AB1204600F0D5F9F06884
:10DE400028430AE03069284208D12046FEF788FAC4
:10DE50002046FFF78BFEF068A843F060012070BDFC
:10DE6000B00200202DE9F05F5B480026017811F038
:10DE70001F0F6FD1584F80781C3FB1464FF0010AF9
:10DE80004FF4803B00287BD0544801783846C07856
:10DE900009B901285ED008B1514C6CE0514C6AE0E0
:10DEA0006078022804D0042847D0052861D146E0D4
:10DEB00049486179807881423AD1787020794B491C
:10DEC000B8700020484A098802E002F80090401C1F
:10DED0008842FAD30125B8460AFA05F0D8F80810A6
:10DEE000084202D02846FEF7E2FAD8F808100BFAEA
:10DEF00005F0084203D045F08000FEF7D8FA6D1C0B
:10DF0000102DE9D34FF00110C8E902090120C8F82B
:10DF10001090FEF77DFAE0794006B8F8060002D5C9
:10DF200040F0010001E020F00100A8F8060020E028
:10DF3000E078A17841EA00201CE0E67819E0C6B953
:10DF4000A07800F08F05280605D505F00F010BFA23
:10DF500001F002E03AE00AFA05F0B9680143204610
:10DF6000B960FEF709FA2846FEF7A4FA284600F041
:10DF700021F9207804442078002891D121E0FFE79E
:10DF80004D4687F8019001245E46B9680AFA04F00C
:10DF9000084202D02046FEF78AFAB96806FA04F071
:10DFA000084203D044F08000FEF781FA641C102C74
:10DFB000EBD34FF00110C7E9020500203D61FEF7E9
:10DFC00027FA054879788078884202D00020BDE899
:10DFD000F09F0120FBE70000B0020020D9480108B3
:10DFE000334A0108B049010808020020DA48010854
:10DFF0002DE9F84F454800273E460078BA4600F024
:10E000001F00B94601287ED140491C3948780028B4
:10E0100076D0002000903E4802780846C0780AB9C1
:10E02000012870D08B4608B13A4C65E03A4C63E069
:10E030006078022804D004280CD005285AD11BE0AF
:10E0400061799BF80100814254D0E078A17841EADF
:10E05000002050E02D48A778E67801794FF00009BC
:10E06000B94247D18078B04244D1012000902B487A
:10E0700010F807A0C6553DE024490879B84239D1C7
:10E08000A07800F08F085FEA086005D508F00F005F
:10E090004FF48035854002E0012505FA08F58878BF
:10E0A000B04215D1DBF8081020462943CBF8081000
:10E0B000DBF80C10A943CBF80C10FEF75DF94046D5
:10E0C000FEF7F8F9404600F075F849EA050911E055
:10E0D00056450FD119EA050F0CD1DBF80810404660
:10E0E000A943CBF80810DBF80C10A943CBF80C10AF
:10E0F000FEF7DDF9207804442078002898D10098B4
:10E10000BDE8F88FFFE70020FAE70000B00200202A
:10E11000D9480108334A0108B04901080802002023
:10E120001C48002202601C48006818B14FF40050DF
:10E13000410001E000200146084318490968002910
:10E1400001D04FF4007140EA010002D04FF4807119
:10E1500001E04FF0000140EA0100114940F41C4089
:10E16000086011480F494FF05003026048684FF0B3
:10E170009002036082604FF0D0020A8048F2FF7183
:10E18000C1600A494FF44850086009494FF08000C7
:10E1900008607047445C00401449010810490108B8
:10E1A000405C004014020020505C0040005C0040D5
:10E1B0004C5C0040FBF7D4BF10B5FEF757F8BDE844
:10E1C0001040FFF701BC10B5FEF7B6FCBDE81040EB
:10E1D000FEF750B8002903D1024940F080000860E2
:10E1E000704700004C5C004041F21001FBF7CCBFCF
:10E1F000082202490020FFF791BC0000B002002075
:10E200000248C1684FF4007001F070BC04010020A6
:10E2100000221146802000F021B800000248034986
:10E2200002780020FFF77ABCDC480108982A002019
:10E230000448016841F008010160016841F00401EF
:10E2400001607047405C00400248016821F008010D
:10E2500001607047405C004070470000F0B5174F08
:10E26000154606467A6800F00F0002EB0012144BC8
:10E27000126803EB420400236A1C08E091F801C015
:10E2800011F802EB5B1C4EEA0C2C44F804CBB3EB08
:10E29000520FF3D3796801EB00114D60094901EB8E
:10E2A0008000D0F8000CC0F30110012803D0302109
:10E2B0003046FBF769FF2846F0BD0000140200203D
:10E2C00000600040005000404FF48020FBF7D8BFB2
:10E2D0004FF0E0214FF48010C1F88001FFF790BFAC
:10E2E00008B501210520FCF72DFE28208DF803003C
:10E2F0000120ADF8000069460548FCF731F901211D
:10E300000807FCF707FE0120FCF7F2FD08BD00003E
:10E310000008014010B5002A06DA22F00042D21DA2
:10E3200022F00703102203E0D21C22F003030C2288
:10E3300013B19C188C4201D9012010BD0244014444
:10E340008360C0E90021C91AD018884202D8106041
:10E350000246F9E70020106010BD000010B5044629
:10E3600003F032FA002805D04FF6FF71DFF808C03D
:10E37000206800DF10BD00000111010810B504463F
:10E3800003F022FA002803D0DFF808C0206800DF7D
:10E3900010BD0000511001082DE9F04116460F464E
:10E3A00000281CD1EFF3108000F0010572B60023A5
:10E3B0001A461946184600F0E5F8040003D1314624
:10E3C000384600F021F905B962B6002C07D1EFF309
:10E3D0000380C00603D1BDE8F04105F08BB9BDE86C
:10E3E000F081000010B524220D490E48FBF73AF9E0
:10E3F00005F056FA0C4805F04DFA05F053F80B49B4
:10E400000B4A0C4B08604FF40071B0FBF1F0116047
:10E41000094901221A60086009490848086010BDCE
:10E42000444501085419002075EA00081003002033
:10E43000EC020020F0020020F4020020541700201B
:10E44000F802002008B50028009001D0401EFAE72D
:10E4500008BD0000044841788078814201D0012045
:10E460007047002070470000AC01002070B54FF4E9
:10E470000275BB2229460A48FBF726F90848002402
:10E48000C0F80042C0F80442BB222946A0F5027041
:10E49000FBF71AF90348C0F80042C0F8044270BD07
:10E4A000902800208826002000F09CBB00F09ABB3A
:10E4B00002488079002800D0012070474C020020DB
:10E4C0000248C079002800D0012070474C0200208B
:10E4D0002DE9F0414B212148FBF7FEF84B2720485E
:10E4E000FBF743F91F4E1E4C1C4DB04215D160790D
:10E4F000217941EA00234B2B01D21A4601E04FF06B
:10E500004B0201D91F4601E04FF04B071449134855
:10E51000FAF7D8FF002085F847004B211048FBF799
:10E52000DBF80F493046FBF72BF92771380A607189
:10E530004122E91DE01DFAF7C5FF95F8490015F8DD
:10E54000481F41EA002204F8482F100A6070A8789A
:10E55000A070BDE8F04100F08BB800007C2C0020DA
:10E56000004F0020646C766B10B5054C4121E01D16
:10E57000FBF7B2F8002004F8480F607010BD0000EF
:10E58000004F00202DE9F0471A4F81461D461646E0
:10E590008846F81DFAF720FF441CB9F1000002D0AC
:10E5A0004146FBF799F8002006B1308005B128708C
:10E5B000F87900281CD0444502D8F91D224604E011
:10E5C000A4EB0800C1194246C91DB9F1000F06D0DD
:10E5D00097F8490097F8483043EA0020308016B198
:10E5E0004846FAF76FFF15B197F84A0028700120E6
:10E5F000BDE8F087004F002002488079002800D055
:10E6000001207047004F00202DE9F0418846074661
:10E61000FAF7E2FE124D441C41263146E81DFBF795
:10E620005BF8412C02D83946224602E0413CE11910
:10E6300032462C46E81DFAF745FF84F848804FEA39
:10E64000182084F8490000F00DF908B1012003E01A
:10E6500000F00AF900B1022084F84A00BDE8F08118
:10E66000004F00200149887170470000004F0020D2
:10E6700070B5002211461046FBF706F9082223491F
:10E680002348FAF71FFF234C22781046627840EAAD
:10E690000220A278E17840EA02401F4D40EA016082
:10E6A000A8420FD16079217941EA0020082804D2DC
:10E6B0006079217941EA002200E0082215491448D6
:10E6C000FAF700FF12492846FBF75AF810490820CC
:10E6D000087100204871014620780143607841EAC2
:10E6E0000021A07841EA0041E07841EA0061A942B6
:10E6F00005D16079217941EA0020082804D2BDE8DB
:10E700007040034801F092BD70BD00006E4C0108DE
:10E710004C02002000F00108646C766B024988719D
:10E72000084601F083BD00004C0200200249C87178
:10E73000084601F07BBD00004C0200202DE9F041AD
:10E740000F4606464FF0FF340025DFF83C8012E00C
:10E75000705D082102F0A6F984EA006408204146B1
:10E76000002C02DA81EA440400E06400401E10F04C
:10E77000FF00F5D16D1CBD42EADB2021204602F0EE
:10E7800091F9C043BDE8F081B71DC1042DE9F04106
:10E790000E4617462021C04302F084F904460025A6
:10E7A000DFF83C8012E0705D082102F07BF984EA1A
:10E7B000006408204146002C02DA81EA440400E0AB
:10E7C0006400401E10F0FF00F5D16D1CBD42EADB75
:10E7D0002021204602F066F9C043BDE8F081000028
:10E7E000B71DC10470B514460D460646B2F5806FDC
:10E7F00007D24FF4EE720AA10020FFF7CDFD0220F0
:10E8000070BD00F0E3FB08B10E2070BD2A46214622
:10E81000304600F01FFD0028F7D01C2070BD00001E
:10E820002E2E5C2E2E5C2E2E5C736F757263655CD3
:10E830006461706C696E6B5C647261672D6E2D64CF
:10E84000726F705C6961705F666C6173685F696E3E
:10E8500074662E6300000000C10600F00F0000D4B3
:10E8600009307047002070470120704710B5002321
:10E870001A4600F0EFF9002800D0012010BD10B5B5
:10E8800004F024FD012800D0002010BDFCF767B97A
:10E8900000214FF08040FDF76AB8000010B5FCF78A
:10E8A0007FF9FDF73DF9BDE810400249082001F06D
:10E8B000A9B8000000080140C0B2FCF7F3B900009D
:10E8C0002DE9F041154E144D4FF0006430780128C9
:10E8D00006D04FF49B7212A10020FFF75DFD09E006
:10E8E000B078022748B14FF49E720DA10020FFF7C7
:10E8F00053FD37700220BDE8F081204600F02CF86F
:10E9000010B137701E20F6E704F58064AC42F4D3F2
:10E910000120B0700020EEE7008000088801002090
:10E920002E2E5C2E2E5C2E2E5C736F757263655CD2
:10E930006461706C696E6B5C647261672D6E2D64CE
:10E94000726F705C6961705F666C6173685F696E3D
:10E9500074662E630000000070B5204E04463078C7
:10E96000012805D0FE221EA10020FFF715FD18E0AA
:10E970004FF48060B4FBF0F100FB1141022511B1AE
:10E980004FF4837208E0F17869B1D6E902121144BC
:10E99000A14208D040F20D1211A10020FFF7FCFCAB
:10E9A0003570022070BD1C4A1C49944201D38C4230
:10E9B00011D30121F170C6E90240204600F098FF12
:10E9C000222803D00028EDD0357070BD204600F01D
:10E9D000FDFA0028F9D035701D2070BD8801002097
:10E9E0002E2E5C2E2E5C2E2E5C736F757263655C12
:10E9F0006461706C696E6B5C647261672D6E2D640E
:10EA0000726F705C6961705F666C6173685F696E7C
:10EA100074662E63000000000090000800F00108FA
:10EA20004FF480607047000010B5242804D20649D6
:10EA300051F82000002805D1832204A10020FFF70F
:10EA4000ABFC0AA010BD00003C4401082E2E5C2E39
:10EA50002E5C2E2E5C736F757263655C6461706CE6
:10EA6000696E6B5C6572726F722E6300000000004D
:10EA7000704700002DE9F0411E4615460C4607463A
:10EA800004F09EFF022C1ED0002C2FD1384603F03C
:10EA900005F903282AD0304604F0DEFC800725D48F
:10EAA000384603F0FBF80746304604F0D7FC04462E
:10EAB000304604F0D7FC01463B4622462846BDE8D6
:10EAC000F04103F0CDBE0A480068A8420ED130469E
:10EAD00004F0C4FC0446304604F0C4FC0646384644
